{
  "contractName": "userManagement",
  "abi": [
    {
      "inputs": [
        {
          "internalType": "address",
          "name": "wallet",
          "type": "address"
        },
        {
          "internalType": "string",
          "name": "username",
          "type": "string"
        },
        {
          "internalType": "string",
          "name": "password",
          "type": "string"
        },
        {
          "internalType": "string",
          "name": "email",
          "type": "string"
        }
      ],
      "name": "userSignUp",
      "outputs": [],
      "stateMutability": "nonpayable",
      "type": "function"
    },
    {
      "inputs": [],
      "name": "viewAllUsers",
      "outputs": [
        {
          "components": [
            {
              "internalType": "address",
              "name": "_userAddress",
              "type": "address"
            },
            {
              "internalType": "string",
              "name": "_userName",
              "type": "string"
            },
            {
              "internalType": "string",
              "name": "_userPassword",
              "type": "string"
            },
            {
              "internalType": "string",
              "name": "_userEmail",
              "type": "string"
            },
            {
              "internalType": "bool",
              "name": "_exist",
              "type": "bool"
            }
          ],
          "internalType": "struct userManagement.User[]",
          "name": "",
          "type": "tuple[]"
        }
      ],
      "stateMutability": "view",
      "type": "function",
      "constant": true
    },
    {
      "inputs": [
        {
          "internalType": "string",
          "name": "username",
          "type": "string"
        }
      ],
      "name": "viewUserByUsername",
      "outputs": [
        {
          "components": [
            {
              "internalType": "address",
              "name": "_userAddress",
              "type": "address"
            },
            {
              "internalType": "string",
              "name": "_userName",
              "type": "string"
            },
            {
              "internalType": "string",
              "name": "_userPassword",
              "type": "string"
            },
            {
              "internalType": "string",
              "name": "_userEmail",
              "type": "string"
            },
            {
              "internalType": "bool",
              "name": "_exist",
              "type": "bool"
            }
          ],
          "internalType": "struct userManagement.User",
          "name": "",
          "type": "tuple"
        }
      ],
      "stateMutability": "view",
      "type": "function",
      "constant": true
    },
    {
      "inputs": [
        {
          "internalType": "address",
          "name": "wallet",
          "type": "address"
        }
      ],
      "name": "viewUserByWallet",
      "outputs": [
        {
          "components": [
            {
              "internalType": "address",
              "name": "_userAddress",
              "type": "address"
            },
            {
              "internalType": "string",
              "name": "_userName",
              "type": "string"
            },
            {
              "internalType": "string",
              "name": "_userPassword",
              "type": "string"
            },
            {
              "internalType": "string",
              "name": "_userEmail",
              "type": "string"
            },
            {
              "internalType": "bool",
              "name": "_exist",
              "type": "bool"
            }
          ],
          "internalType": "struct userManagement.User",
          "name": "",
          "type": "tuple"
        }
      ],
      "stateMutability": "view",
      "type": "function",
      "constant": true
    },
    {
      "inputs": [
        {
          "internalType": "string",
          "name": "username",
          "type": "string"
        },
        {
          "internalType": "string",
          "name": "password",
          "type": "string"
        }
      ],
      "name": "userLogin",
      "outputs": [
        {
          "internalType": "bool",
          "name": "",
          "type": "bool"
        }
      ],
      "stateMutability": "view",
      "type": "function",
      "constant": true
    }
  ],
  "bytecode": "0x608060405234801561001057600080fd5b50611b9a806100206000396000f3fe608060405234801561001057600080fd5b50600436106100575760003560e01c80635b4a3abe1461005c578063a150fa721461008c578063ba81636c146100bc578063c7917e5c146100ec578063ec046fc714610108575b600080fd5b61007660048036038101906100719190611020565b610126565b60405161008391906110b3565b60405180910390f35b6100a660048036038101906100a1919061112c565b6101ed565b6040516100b3919061127a565b60405180910390f35b6100d660048036038101906100d1919061129c565b6104fa565b6040516100e3919061127a565b60405180910390f35b610106600480360381019061010191906112e5565b6107c7565b005b610110610b29565b60405161011d91906114e6565b60405180910390f35b60006001836040516101389190611544565b908152602001604051809103902060040160009054906101000a900460ff16610196576040517f08c379a000000000000000000000000000000000000000000000000000000000815260040161018d906115b8565b60405180910390fd5b6001836040516101a69190611544565b90815260200160405180910390206002016040516101c491906116db565b60405180910390208280519060200120036101e257600190506101e7565b600090505b92915050565b6101f5610e7f565b6000808373ffffffffffffffffffffffffffffffffffffffff1673ffffffffffffffffffffffffffffffffffffffff16815260200190815260200160002060040160009054906101000a900460ff16610283576040517f08c379a000000000000000000000000000000000000000000000000000000000815260040161027a9061173e565b60405180910390fd5b6000808373ffffffffffffffffffffffffffffffffffffffff1673ffffffffffffffffffffffffffffffffffffffff1681526020019081526020016000206040518060a00160405290816000820160009054906101000a900473ffffffffffffffffffffffffffffffffffffffff1673ffffffffffffffffffffffffffffffffffffffff1673ffffffffffffffffffffffffffffffffffffffff16815260200160018201805461033290611607565b80601f016020809104026020016040519081016040528092919081815260200182805461035e90611607565b80156103ab5780601f10610380576101008083540402835291602001916103ab565b820191906000526020600020905b81548152906001019060200180831161038e57829003601f168201915b505050505081526020016002820180546103c490611607565b80601f01602080910402602001604051908101604052809291908181526020018280546103f090611607565b801561043d5780601f106104125761010080835404028352916020019161043d565b820191906000526020600020905b81548152906001019060200180831161042057829003601f168201915b5050505050815260200160038201805461045690611607565b80601f016020809104026020016040519081016040528092919081815260200182805461048290611607565b80156104cf5780601f106104a4576101008083540402835291602001916104cf565b820191906000526020600020905b8154815290600101906020018083116104b257829003601f168201915b505050505081526020016004820160009054906101000a900460ff1615151515815250509050919050565b610502610e7f565b6001826040516105129190611544565b908152602001604051809103902060040160009054906101000a900460ff16610570576040517f08c379a0000000000000000000000000000000000000000000000000000000008152600401610567906115b8565b60405180910390fd5b6001826040516105809190611544565b90815260200160405180910390206040518060a00160405290816000820160009054906101000a900473ffffffffffffffffffffffffffffffffffffffff1673ffffffffffffffffffffffffffffffffffffffff1673ffffffffffffffffffffffffffffffffffffffff1681526020016001820180546105ff90611607565b80601f016020809104026020016040519081016040528092919081815260200182805461062b90611607565b80156106785780601f1061064d57610100808354040283529160200191610678565b820191906000526020600020905b81548152906001019060200180831161065b57829003601f168201915b5050505050815260200160028201805461069190611607565b80601f01602080910402602001604051908101604052809291908181526020018280546106bd90611607565b801561070a5780601f106106df5761010080835404028352916020019161070a565b820191906000526020600020905b8154815290600101906020018083116106ed57829003601f168201915b5050505050815260200160038201805461072390611607565b80601f016020809104026020016040519081016040528092919081815260200182805461074f90611607565b801561079c5780601f106107715761010080835404028352916020019161079c565b820191906000526020600020905b81548152906001019060200180831161077f57829003601f168201915b505050505081526020016004820160009054906101000a900460ff1615151515815250509050919050565b6000808573ffffffffffffffffffffffffffffffffffffffff1673ffffffffffffffffffffffffffffffffffffffff16815260200190815260200160002060040160009054906101000a900460ff1615610856576040517f08c379a000000000000000000000000000000000000000000000000000000000815260040161084d906117aa565b60405180910390fd5b6001836040516108669190611544565b908152602001604051809103902060040160009054906101000a900460ff16156108c5576040517f08c379a00000000000000000000000000000000000000000000000000000000081526004016108bc90611816565b60405180910390fd5b60006040518060a001604052808673ffffffffffffffffffffffffffffffffffffffff168152602001858152602001848152602001838152602001600115158152509050806000808773ffffffffffffffffffffffffffffffffffffffff1673ffffffffffffffffffffffffffffffffffffffff16815260200190815260200160002060008201518160000160006101000a81548173ffffffffffffffffffffffffffffffffffffffff021916908373ffffffffffffffffffffffffffffffffffffffff16021790555060208201518160010190816109a491906119ec565b5060408201518160020190816109ba91906119ec565b5060608201518160030190816109d091906119ec565b5060808201518160040160006101000a81548160ff02191690831515021790555090505080600185604051610a059190611544565b908152602001604051809103902060008201518160000160006101000a81548173ffffffffffffffffffffffffffffffffffffffff021916908373ffffffffffffffffffffffffffffffffffffffff1602179055506020820151816001019081610a6f91906119ec565b506040820151816002019081610a8591906119ec565b506060820151816003019081610a9b91906119ec565b5060808201518160040160006101000a81548160ff0219169083151502179055509050506002859080600181540180825580915050600190039060005260206000200160009091909190916101000a81548173ffffffffffffffffffffffffffffffffffffffff021916908373ffffffffffffffffffffffffffffffffffffffff1602179055505050505050565b6060600060028054905067ffffffffffffffff811115610b4c57610b4b610ef5565b5b604051908082528060200260200182016040528015610b8557816020015b610b72610e7f565b815260200190600190039081610b6a5790505b50905060005b600280549050811015610e775760008060028381548110610baf57610bae611abe565b5b9060005260206000200160009054906101000a900473ffffffffffffffffffffffffffffffffffffffff1673ffffffffffffffffffffffffffffffffffffffff1673ffffffffffffffffffffffffffffffffffffffff1681526020019081526020016000206040518060a00160405290816000820160009054906101000a900473ffffffffffffffffffffffffffffffffffffffff1673ffffffffffffffffffffffffffffffffffffffff1673ffffffffffffffffffffffffffffffffffffffff168152602001600182018054610c8590611607565b80601f0160208091040260200160405190810160405280929190818152602001828054610cb190611607565b8015610cfe5780601f10610cd357610100808354040283529160200191610cfe565b820191906000526020600020905b815481529060010190602001808311610ce157829003601f168201915b50505050508152602001600282018054610d1790611607565b80601f0160208091040260200160405190810160405280929190818152602001828054610d4390611607565b8015610d905780601f10610d6557610100808354040283529160200191610d90565b820191906000526020600020905b815481529060010190602001808311610d7357829003601f168201915b50505050508152602001600382018054610da990611607565b80601f0160208091040260200160405190810160405280929190818152602001828054610dd590611607565b8015610e225780601f10610df757610100808354040283529160200191610e22565b820191906000526020600020905b815481529060010190602001808311610e0557829003601f168201915b505050505081526020016004820160009054906101000a900460ff161515151581525050828281518110610e5957610e58611abe565b5b60200260200101819052508080610e6f90611b1c565b915050610b8b565b508091505090565b6040518060a00160405280600073ffffffffffffffffffffffffffffffffffffffff1681526020016060815260200160608152602001606081526020016000151581525090565b6000604051905090565b600080fd5b600080fd5b600080fd5b600080fd5b6000601f19601f8301169050919050565b7f4e487b7100000000000000000000000000000000000000000000000000000000600052604160045260246000fd5b610f2d82610ee4565b810181811067ffffffffffffffff82111715610f4c57610f4b610ef5565b5b80604052505050565b6000610f5f610ec6565b9050610f6b8282610f24565b919050565b600067ffffffffffffffff821115610f8b57610f8a610ef5565b5b610f9482610ee4565b9050602081019050919050565b82818337600083830152505050565b6000610fc3610fbe84610f70565b610f55565b905082815260208101848484011115610fdf57610fde610edf565b5b610fea848285610fa1565b509392505050565b600082601f83011261100757611006610eda565b5b8135611017848260208601610fb0565b91505092915050565b6000806040838503121561103757611036610ed0565b5b600083013567ffffffffffffffff81111561105557611054610ed5565b5b61106185828601610ff2565b925050602083013567ffffffffffffffff81111561108257611081610ed5565b5b61108e85828601610ff2565b9150509250929050565b60008115159050919050565b6110ad81611098565b82525050565b60006020820190506110c860008301846110a4565b92915050565b600073ffffffffffffffffffffffffffffffffffffffff82169050919050565b60006110f9826110ce565b9050919050565b611109816110ee565b811461111457600080fd5b50565b60008135905061112681611100565b92915050565b60006020828403121561114257611141610ed0565b5b600061115084828501611117565b91505092915050565b611162816110ee565b82525050565b600081519050919050565b600082825260208201905092915050565b60005b838110156111a2578082015181840152602081019050611187565b60008484015250505050565b60006111b982611168565b6111c38185611173565b93506111d3818560208601611184565b6111dc81610ee4565b840191505092915050565b6111f081611098565b82525050565b600060a08301600083015161120e6000860182611159565b506020830151848203602086015261122682826111ae565b9150506040830151848203604086015261124082826111ae565b9150506060830151848203606086015261125a82826111ae565b915050608083015161126f60808601826111e7565b508091505092915050565b6000602082019050818103600083015261129481846111f6565b905092915050565b6000602082840312156112b2576112b1610ed0565b5b600082013567ffffffffffffffff8111156112d0576112cf610ed5565b5b6112dc84828501610ff2565b91505092915050565b600080600080608085870312156112ff576112fe610ed0565b5b600061130d87828801611117565b945050602085013567ffffffffffffffff81111561132e5761132d610ed5565b5b61133a87828801610ff2565b935050604085013567ffffffffffffffff81111561135b5761135a610ed5565b5b61136787828801610ff2565b925050606085013567ffffffffffffffff81111561138857611387610ed5565b5b61139487828801610ff2565b91505092959194509250565b600081519050919050565b600082825260208201905092915050565b6000819050602082019050919050565b600060a0830160008301516113e46000860182611159565b50602083015184820360208601526113fc82826111ae565b9150506040830151848203604086015261141682826111ae565b9150506060830151848203606086015261143082826111ae565b915050608083015161144560808601826111e7565b508091505092915050565b600061145c83836113cc565b905092915050565b6000602082019050919050565b600061147c826113a0565b61148681856113ab565b935083602082028501611498856113bc565b8060005b858110156114d457848403895281516114b58582611450565b94506114c083611464565b925060208a0199505060018101905061149c565b50829750879550505050505092915050565b600060208201905081810360008301526115008184611471565b905092915050565b600081905092915050565b600061151e82611168565b6115288185611508565b9350611538818560208601611184565b80840191505092915050565b60006115508284611513565b915081905092915050565b600082825260208201905092915050565b7f4e6f206163636f756e742077697468207468617420757365726e616d65000000600082015250565b60006115a2601d8361155b565b91506115ad8261156c565b602082019050919050565b600060208201905081810360008301526115d181611595565b9050919050565b7f4e487b7100000000000000000000000000000000000000000000000000000000600052602260045260246000fd5b6000600282049050600182168061161f57607f821691505b602082108103611632576116316115d8565b5b50919050565b600081905092915050565b60008190508160005260206000209050919050565b6000815461166581611607565b61166f8186611638565b9450600182166000811461168a576001811461169f576116d2565b60ff19831686528115158202860193506116d2565b6116a885611643565b60005b838110156116ca578154818901526001820191506020810190506116ab565b838801955050505b50505092915050565b60006116e78284611658565b915081905092915050565b7f4e6f206163636f756e74207769746820746861742077616c6c65740000000000600082015250565b6000611728601b8361155b565b9150611733826116f2565b602082019050919050565b600060208201905081810360008301526117578161171b565b9050919050565b7f4163636f756e7420616c72656164792065786973747300000000000000000000600082015250565b600061179460168361155b565b915061179f8261175e565b602082019050919050565b600060208201905081810360008301526117c381611787565b9050919050565b7f557365726e616d6520616c72656164792074616b656e00000000000000000000600082015250565b600061180060168361155b565b915061180b826117ca565b602082019050919050565b6000602082019050818103600083015261182f816117f3565b9050919050565b60008190508160005260206000209050919050565b60006020601f8301049050919050565b600082821b905092915050565b6000600883026118987fffffffffffffffffffffffffffffffffffffffffffffffffffffffffffffffff8261185b565b6118a2868361185b565b95508019841693508086168417925050509392505050565b6000819050919050565b6000819050919050565b60006118e96118e46118df846118ba565b6118c4565b6118ba565b9050919050565b6000819050919050565b611903836118ce565b61191761190f826118f0565b848454611868565b825550505050565b600090565b61192c61191f565b6119378184846118fa565b505050565b5b8181101561195b57611950600082611924565b60018101905061193d565b5050565b601f8211156119a05761197181611836565b61197a8461184b565b81016020851015611989578190505b61199d6119958561184b565b83018261193c565b50505b505050565b600082821c905092915050565b60006119c3600019846008026119a5565b1980831691505092915050565b60006119dc83836119b2565b9150826002028217905092915050565b6119f582611168565b67ffffffffffffffff811115611a0e57611a0d610ef5565b5b611a188254611607565b611a2382828561195f565b600060209050601f831160018114611a565760008415611a44578287015190505b611a4e85826119d0565b865550611ab6565b601f198416611a6486611836565b60005b82811015611a8c57848901518255600182019150602085019450602081019050611a67565b86831015611aa95784890151611aa5601f8916826119b2565b8355505b6001600288020188555050505b505050505050565b7f4e487b7100000000000000000000000000000000000000000000000000000000600052603260045260246000fd5b7f4e487b7100000000000000000000000000000000000000000000000000000000600052601160045260246000fd5b6000611b27826118ba565b91507fffffffffffffffffffffffffffffffffffffffffffffffffffffffffffffffff8203611b5957611b58611aed565b5b60018201905091905056fea2646970667358221220469ff9205b654853e0ba6f83d2c2dd1b8928fe081655b43916a6c34b49dfe44c64736f6c63430008130033",
  "immutableReferences": {},
  "source": "// SPDX-License-Identifier: MIT\npragma solidity >=0.4.22 <0.9.0;\n\ncontract userManagement {\n    struct User {\n        address _userAddress; // Mandatory\n        string _userName;\n        string _userPassword;\n        string _userEmail;\n        bool _exist;\n    }\n\n    mapping(address => User) users; // user wallet address is pointing to a structure of user\n    mapping(string => User) usernames; // _usernames[username]\n    address[] userAddresses; // user dynamic array of wallet addresses\n\n    // Create an account for the user\n    function userSignUp(address wallet, string memory username, string memory password, string memory email) public {\n        require(!users[wallet]._exist, \"Account already exists\");\n        require(!usernames[username]._exist, \"Username already taken\");\n\n        User memory newUser = User(wallet, username, password, email, true);\n        users[wallet] = newUser;\n        usernames[username] = newUser;\n        userAddresses.push(wallet);\n    }\n\n    // Return all registered users\n    function viewAllUsers() public view returns (User[] memory) {\n        User[] memory userArray = new User[](userAddresses.length);\n\n        for (uint256 i = 0; i < userAddresses.length; i++) {\n            userArray[i] = users[userAddresses[i]];\n        }\n\n        return userArray;\n    }\n\n    // Return one record of user based on username\n    function viewUserByUsername(string memory username) public view returns (User memory) {\n        require(usernames[username]._exist, \"No account with that username\");\n        return usernames[username];\n    }\n\n    // Return one record of user based on wallet address\n    function viewUserByWallet(address wallet) public view returns (User memory) {\n        require(users[wallet]._exist, \"No account with that wallet\");\n        return users[wallet];\n    }\n\n    // Validate login details of user based on username and password\n    function userLogin(string memory username, string memory password) public view returns (bool) {\n        require(usernames[username]._exist, \"No account with that username\");\n\n        // Check if password matches\n        if (keccak256(bytes(password)) == keccak256(bytes(usernames[username]._userPassword))) {\n            return true;\n        } else {\n            return false;\n        }\n    }\n}\n",
  "sourcePath": "C:\\Users\\kuchi\\OneDrive\\Desktop\\project\\contracts\\userManagement.sol",
  "compiler": {
    "name": "solc",
    "version": "0.8.19+commit.7dd6d404.Emscripten.clang"
  },
  "schemaVersion": "3.4.16",
  "updatedAt": "2025-02-24T07:23:51.015Z",
  "networkType": "ethereum",
  "devdoc": {
    "kind": "dev",
    "methods": {},
    "version": 1
  },
  "userdoc": {
    "kind": "user",
    "methods": {},
    "version": 1
  }
}