{
  "contractName": "userManagement",
  "abi": [
    {
      "inputs": [
        {
          "internalType": "uint256",
          "name": "",
          "type": "uint256"
        }
      ],
      "name": "userAddresses",
      "outputs": [
        {
          "internalType": "address",
          "name": "",
          "type": "address"
        }
      ],
      "stateMutability": "view",
      "type": "function",
      "constant": true
    },
    {
      "inputs": [
        {
          "internalType": "string",
          "name": "",
          "type": "string"
        }
      ],
      "name": "usernames",
      "outputs": [
        {
          "internalType": "address",
          "name": "_userAddress",
          "type": "address"
        },
        {
          "internalType": "string",
          "name": "_userName",
          "type": "string"
        },
        {
          "internalType": "string",
          "name": "_userPassword",
          "type": "string"
        },
        {
          "internalType": "string",
          "name": "_userEmail",
          "type": "string"
        },
        {
          "internalType": "bool",
          "name": "_exist",
          "type": "bool"
        }
      ],
      "stateMutability": "view",
      "type": "function",
      "constant": true
    },
    {
      "inputs": [
        {
          "internalType": "address",
          "name": "",
          "type": "address"
        }
      ],
      "name": "users",
      "outputs": [
        {
          "internalType": "address",
          "name": "_userAddress",
          "type": "address"
        },
        {
          "internalType": "string",
          "name": "_userName",
          "type": "string"
        },
        {
          "internalType": "string",
          "name": "_userPassword",
          "type": "string"
        },
        {
          "internalType": "string",
          "name": "_userEmail",
          "type": "string"
        },
        {
          "internalType": "bool",
          "name": "_exist",
          "type": "bool"
        }
      ],
      "stateMutability": "view",
      "type": "function",
      "constant": true
    },
    {
      "inputs": [
        {
          "internalType": "address",
          "name": "wallet",
          "type": "address"
        },
        {
          "internalType": "string",
          "name": "username",
          "type": "string"
        },
        {
          "internalType": "string",
          "name": "hashedPassword",
          "type": "string"
        },
        {
          "internalType": "string",
          "name": "email",
          "type": "string"
        }
      ],
      "name": "userSignUp",
      "outputs": [],
      "stateMutability": "nonpayable",
      "type": "function"
    },
    {
      "inputs": [
        {
          "internalType": "string",
          "name": "username",
          "type": "string"
        },
        {
          "internalType": "string",
          "name": "hashedPassword",
          "type": "string"
        }
      ],
      "name": "userLogin",
      "outputs": [
        {
          "internalType": "bool",
          "name": "",
          "type": "bool"
        }
      ],
      "stateMutability": "view",
      "type": "function",
      "constant": true
    },
    {
      "inputs": [
        {
          "internalType": "string",
          "name": "username",
          "type": "string"
        }
      ],
      "name": "viewUserByUsername",
      "outputs": [
        {
          "internalType": "address",
          "name": "",
          "type": "address"
        },
        {
          "internalType": "string",
          "name": "",
          "type": "string"
        },
        {
          "internalType": "string",
          "name": "",
          "type": "string"
        },
        {
          "internalType": "string",
          "name": "",
          "type": "string"
        }
      ],
      "stateMutability": "view",
      "type": "function",
      "constant": true
    },
    {
      "inputs": [
        {
          "internalType": "address",
          "name": "userAddress",
          "type": "address"
        },
        {
          "internalType": "string",
          "name": "notificationType",
          "type": "string"
        },
        {
          "internalType": "string",
          "name": "message",
          "type": "string"
        },
        {
          "internalType": "string",
          "name": "parameter",
          "type": "string"
        },
        {
          "internalType": "string",
          "name": "value",
          "type": "string"
        }
      ],
      "name": "addNotification",
      "outputs": [],
      "stateMutability": "nonpayable",
      "type": "function"
    },
    {
      "inputs": [
        {
          "internalType": "address",
          "name": "userAddress",
          "type": "address"
        }
      ],
      "name": "getUserNotifications",
      "outputs": [
        {
          "internalType": "string[]",
          "name": "types",
          "type": "string[]"
        },
        {
          "internalType": "string[]",
          "name": "messages",
          "type": "string[]"
        },
        {
          "internalType": "string[]",
          "name": "parameters",
          "type": "string[]"
        },
        {
          "internalType": "string[]",
          "name": "values",
          "type": "string[]"
        },
        {
          "internalType": "uint256[]",
          "name": "timestamps",
          "type": "uint256[]"
        },
        {
          "internalType": "bool[]",
          "name": "isRead",
          "type": "bool[]"
        }
      ],
      "stateMutability": "view",
      "type": "function",
      "constant": true
    },
    {
      "inputs": [],
      "name": "getAllNotifications",
      "outputs": [
        {
          "internalType": "address[]",
          "name": "userAddresses",
          "type": "address[]"
        },
        {
          "internalType": "string[]",
          "name": "types",
          "type": "string[]"
        },
        {
          "internalType": "string[]",
          "name": "messages",
          "type": "string[]"
        },
        {
          "internalType": "string[]",
          "name": "parameters",
          "type": "string[]"
        },
        {
          "internalType": "string[]",
          "name": "values",
          "type": "string[]"
        },
        {
          "internalType": "uint256[]",
          "name": "timestamps",
          "type": "uint256[]"
        },
        {
          "internalType": "bool[]",
          "name": "isRead",
          "type": "bool[]"
        }
      ],
      "stateMutability": "view",
      "type": "function",
      "constant": true
    }
  ],
  "bytecode": "0x608060405234801561001057600080fd5b506131f6806100206000396000f3fe608060405234801561001057600080fd5b50600436106100935760003560e01c8063a87430ba11610066578063a87430ba14610149578063aaee301f1461017d578063ba81636c146101b1578063c7917e5c146101e4578063e86435091461020057610093565b80631bd9aa0914610098578063502c9bd5146100b457806357f31358146100e45780635b4a3abe14610119575b600080fd5b6100b260048036038101906100ad9190612040565b610224565b005b6100ce60048036038101906100c99190612161565b6103b0565b6040516100db919061219d565b60405180910390f35b6100fe60048036038101906100f991906121b8565b6103ef565b604051610110969594939291906124ae565b60405180910390f35b610133600480360381019061012e9190612539565b610a0b565b60405161014091906125c0565b60405180910390f35b610163600480360381019061015e91906121b8565b610af2565b604051610174959493929190612625565b60405180910390f35b6101976004803603810190610192919061268d565b610ced565b6040516101a8959493929190612625565b60405180910390f35b6101cb60048036038101906101c6919061268d565b610efe565b6040516101db94939291906126d6565b60405180910390f35b6101fe60048036038101906101f99190612730565b6111eb565b005b6102086116fb565b60405161021b97969594939291906128a9565b60405180910390f35b60006040518060e001604052808773ffffffffffffffffffffffffffffffffffffffff168152602001868152602001858152602001848152602001838152602001428152602001600015158152509050600360008773ffffffffffffffffffffffffffffffffffffffff1673ffffffffffffffffffffffffffffffffffffffff16815260200190815260200160002081908060018154018082558091505060019003906000526020600020906007020160009091909190915060008201518160000160006101000a81548173ffffffffffffffffffffffffffffffffffffffff021916908373ffffffffffffffffffffffffffffffffffffffff16021790555060208201518160010190816103399190612b55565b50604082015181600201908161034f9190612b55565b5060608201518160030190816103659190612b55565b50608082015181600401908161037b9190612b55565b5060a0820151816005015560c08201518160060160006101000a81548160ff0219169083151502179055505050505050505050565b600281815481106103c057600080fd5b906000526020600020016000915054906101000a900473ffffffffffffffffffffffffffffffffffffffff1681565b6060806060806060806000600360008973ffffffffffffffffffffffffffffffffffffffff1673ffffffffffffffffffffffffffffffffffffffff16815260200190815260200160002090506000818054905090508067ffffffffffffffff81111561045e5761045d611f15565b5b60405190808252806020026020018201604052801561049157816020015b606081526020019060019003908161047c5790505b5097508067ffffffffffffffff8111156104ae576104ad611f15565b5b6040519080825280602002602001820160405280156104e157816020015b60608152602001906001900390816104cc5790505b5096508067ffffffffffffffff8111156104fe576104fd611f15565b5b60405190808252806020026020018201604052801561053157816020015b606081526020019060019003908161051c5790505b5095508067ffffffffffffffff81111561054e5761054d611f15565b5b60405190808252806020026020018201604052801561058157816020015b606081526020019060019003908161056c5790505b5094508067ffffffffffffffff81111561059e5761059d611f15565b5b6040519080825280602002602001820160405280156105cc5781602001602082028036833780820191505090505b5093508067ffffffffffffffff8111156105e9576105e8611f15565b5b6040519080825280602002602001820160405280156106175781602001602082028036833780820191505090505b50925060005b818110156109ff5782818154811061063857610637612c27565b5b9060005260206000209060070201600101805461065490612978565b80601f016020809104026020016040519081016040528092919081815260200182805461068090612978565b80156106cd5780601f106106a2576101008083540402835291602001916106cd565b820191906000526020600020905b8154815290600101906020018083116106b057829003601f168201915b50505050508982815181106106e5576106e4612c27565b5b602002602001018190525082818154811061070357610702612c27565b5b9060005260206000209060070201600201805461071f90612978565b80601f016020809104026020016040519081016040528092919081815260200182805461074b90612978565b80156107985780601f1061076d57610100808354040283529160200191610798565b820191906000526020600020905b81548152906001019060200180831161077b57829003601f168201915b50505050508882815181106107b0576107af612c27565b5b60200260200101819052508281815481106107ce576107cd612c27565b5b906000526020600020906007020160030180546107ea90612978565b80601f016020809104026020016040519081016040528092919081815260200182805461081690612978565b80156108635780601f1061083857610100808354040283529160200191610863565b820191906000526020600020905b81548152906001019060200180831161084657829003601f168201915b505050505087828151811061087b5761087a612c27565b5b602002602001018190525082818154811061089957610898612c27565b5b906000526020600020906007020160040180546108b590612978565b80601f01602080910402602001604051908101604052809291908181526020018280546108e190612978565b801561092e5780601f106109035761010080835404028352916020019161092e565b820191906000526020600020905b81548152906001019060200180831161091157829003601f168201915b505050505086828151811061094657610945612c27565b5b602002602001018190525082818154811061096457610963612c27565b5b90600052602060002090600702016005015485828151811061098957610988612c27565b5b6020026020010181815250508281815481106109a8576109a7612c27565b5b906000526020600020906007020160060160009054906101000a900460ff168482815181106109da576109d9612c27565b5b60200260200101901515908115158152505080806109f790612c85565b91505061061d565b50505091939550919395565b6000600183604051610a1d9190612d09565b908152602001604051809103902060040160009054906101000a900460ff16610a7b576040517f08c379a0000000000000000000000000000000000000000000000000000000008152600401610a7290612d6c565b60405180910390fd5b81604051602001610a8c9190612d09565b60405160208183030381529060405280519060200120600184604051610ab29190612d09565b9081526020016040518091039020600201604051602001610ad39190612e0f565b6040516020818303038152906040528051906020012014905092915050565b60006020528060005260406000206000915090508060000160009054906101000a900473ffffffffffffffffffffffffffffffffffffffff1690806001018054610b3b90612978565b80601f0160208091040260200160405190810160405280929190818152602001828054610b6790612978565b8015610bb45780601f10610b8957610100808354040283529160200191610bb4565b820191906000526020600020905b815481529060010190602001808311610b9757829003601f168201915b505050505090806002018054610bc990612978565b80601f0160208091040260200160405190810160405280929190818152602001828054610bf590612978565b8015610c425780601f10610c1757610100808354040283529160200191610c42565b820191906000526020600020905b815481529060010190602001808311610c2557829003601f168201915b505050505090806003018054610c5790612978565b80601f0160208091040260200160405190810160405280929190818152602001828054610c8390612978565b8015610cd05780601f10610ca557610100808354040283529160200191610cd0565b820191906000526020600020905b815481529060010190602001808311610cb357829003601f168201915b5050505050908060040160009054906101000a900460ff16905085565b6001818051602081018201805184825260208301602085012081835280955050505050506000915090508060000160009054906101000a900473ffffffffffffffffffffffffffffffffffffffff1690806001018054610d4c90612978565b80601f0160208091040260200160405190810160405280929190818152602001828054610d7890612978565b8015610dc55780601f10610d9a57610100808354040283529160200191610dc5565b820191906000526020600020905b815481529060010190602001808311610da857829003601f168201915b505050505090806002018054610dda90612978565b80601f0160208091040260200160405190810160405280929190818152602001828054610e0690612978565b8015610e535780601f10610e2857610100808354040283529160200191610e53565b820191906000526020600020905b815481529060010190602001808311610e3657829003601f168201915b505050505090806003018054610e6890612978565b80601f0160208091040260200160405190810160405280929190818152602001828054610e9490612978565b8015610ee15780601f10610eb657610100808354040283529160200191610ee1565b820191906000526020600020905b815481529060010190602001808311610ec457829003601f168201915b5050505050908060040160009054906101000a900460ff16905085565b60006060806060600185604051610f159190612d09565b908152602001604051809103902060040160009054906101000a900460ff16610f73576040517f08c379a0000000000000000000000000000000000000000000000000000000008152600401610f6a90612d6c565b60405180910390fd5b6000600186604051610f859190612d09565b90815260200160405180910390206040518060a00160405290816000820160009054906101000a900473ffffffffffffffffffffffffffffffffffffffff1673ffffffffffffffffffffffffffffffffffffffff1673ffffffffffffffffffffffffffffffffffffffff16815260200160018201805461100490612978565b80601f016020809104026020016040519081016040528092919081815260200182805461103090612978565b801561107d5780601f106110525761010080835404028352916020019161107d565b820191906000526020600020905b81548152906001019060200180831161106057829003601f168201915b5050505050815260200160028201805461109690612978565b80601f01602080910402602001604051908101604052809291908181526020018280546110c290612978565b801561110f5780601f106110e45761010080835404028352916020019161110f565b820191906000526020600020905b8154815290600101906020018083116110f257829003601f168201915b5050505050815260200160038201805461112890612978565b80601f016020809104026020016040519081016040528092919081815260200182805461115490612978565b80156111a15780601f10611176576101008083540402835291602001916111a1565b820191906000526020600020905b81548152906001019060200180831161118457829003601f168201915b505050505081526020016004820160009054906101000a900460ff161515151581525050905080600001518160200151826040015183606001519450945094509450509193509193565b83836000808373ffffffffffffffffffffffffffffffffffffffff1673ffffffffffffffffffffffffffffffffffffffff16815260200190815260200160002060040160009054906101000a900460ff161561127c576040517f08c379a000000000000000000000000000000000000000000000000000000000815260040161127390612e98565b60405180910390fd5b60018160405161128c9190612d09565b908152602001604051809103902060040160009054906101000a900460ff16156112eb576040517f08c379a00000000000000000000000000000000000000000000000000000000081526004016112e290612f04565b60405180910390fd5b600385511015611330576040517f08c379a000000000000000000000000000000000000000000000000000000000815260040161132790612f96565b60405180910390fd5b6000845111611374576040517f08c379a000000000000000000000000000000000000000000000000000000000815260040161136b90613002565b60405180910390fd5b60008351116113b8576040517f08c379a00000000000000000000000000000000000000000000000000000000081526004016113af9061306e565b60405180910390fd5b600073ffffffffffffffffffffffffffffffffffffffff168673ffffffffffffffffffffffffffffffffffffffff1603611427576040517f08c379a000000000000000000000000000000000000000000000000000000000815260040161141e906130da565b60405180910390fd5b8573ffffffffffffffffffffffffffffffffffffffff163373ffffffffffffffffffffffffffffffffffffffff1614611495576040517f08c379a000000000000000000000000000000000000000000000000000000000815260040161148c9061316c565b60405180910390fd5b60006040518060a001604052808873ffffffffffffffffffffffffffffffffffffffff168152602001878152602001868152602001858152602001600115158152509050806000808973ffffffffffffffffffffffffffffffffffffffff1673ffffffffffffffffffffffffffffffffffffffff16815260200190815260200160002060008201518160000160006101000a81548173ffffffffffffffffffffffffffffffffffffffff021916908373ffffffffffffffffffffffffffffffffffffffff16021790555060208201518160010190816115749190612b55565b50604082015181600201908161158a9190612b55565b5060608201518160030190816115a09190612b55565b5060808201518160040160006101000a81548160ff021916908315150217905550905050806001876040516115d59190612d09565b908152602001604051809103902060008201518160000160006101000a81548173ffffffffffffffffffffffffffffffffffffffff021916908373ffffffffffffffffffffffffffffffffffffffff160217905550602082015181600101908161163f9190612b55565b5060408201518160020190816116559190612b55565b50606082015181600301908161166b9190612b55565b5060808201518160040160006101000a81548160ff0219169083151502179055509050506002879080600181540180825580915050600190039060005260206000200160009091909190916101000a81548173ffffffffffffffffffffffffffffffffffffffff021916908373ffffffffffffffffffffffffffffffffffffffff16021790555050505050505050565b60608060608060608060606000805b885181101561179057600360008a838151811061172a57611729612c27565b5b602002602001015173ffffffffffffffffffffffffffffffffffffffff1673ffffffffffffffffffffffffffffffffffffffff168152602001908152602001600020805490508261177b919061318c565b9150808061178890612c85565b91505061170a565b508067ffffffffffffffff8111156117ab576117aa611f15565b5b6040519080825280602002602001820160405280156117d95781602001602082028036833780820191505090505b5097508067ffffffffffffffff8111156117f6576117f5611f15565b5b60405190808252806020026020018201604052801561182957816020015b60608152602001906001900390816118145790505b5096508067ffffffffffffffff81111561184657611845611f15565b5b60405190808252806020026020018201604052801561187957816020015b60608152602001906001900390816118645790505b5095508067ffffffffffffffff81111561189657611895611f15565b5b6040519080825280602002602001820160405280156118c957816020015b60608152602001906001900390816118b45790505b5094508067ffffffffffffffff8111156118e6576118e5611f15565b5b60405190808252806020026020018201604052801561191957816020015b60608152602001906001900390816119045790505b5093508067ffffffffffffffff81111561193657611935611f15565b5b6040519080825280602002602001820160405280156119645781602001602082028036833780820191505090505b5092508067ffffffffffffffff81111561198157611980611f15565b5b6040519080825280602002602001820160405280156119af5781602001602082028036833780820191505090505b5091506000805b8951811015611e7c5760008a82815181106119d4576119d3612c27565b5b602002602001015190506000600360008373ffffffffffffffffffffffffffffffffffffffff1673ffffffffffffffffffffffffffffffffffffffff168152602001908152602001600020905060005b8180549050811015611e6657828d8681518110611a4457611a43612c27565b5b602002602001019073ffffffffffffffffffffffffffffffffffffffff16908173ffffffffffffffffffffffffffffffffffffffff1681525050818181548110611a9157611a90612c27565b5b90600052602060002090600702016001018054611aad90612978565b80601f0160208091040260200160405190810160405280929190818152602001828054611ad990612978565b8015611b265780601f10611afb57610100808354040283529160200191611b26565b820191906000526020600020905b815481529060010190602001808311611b0957829003601f168201915b50505050508c8681518110611b3e57611b3d612c27565b5b6020026020010181905250818181548110611b5c57611b5b612c27565b5b90600052602060002090600702016002018054611b7890612978565b80601f0160208091040260200160405190810160405280929190818152602001828054611ba490612978565b8015611bf15780601f10611bc657610100808354040283529160200191611bf1565b820191906000526020600020905b815481529060010190602001808311611bd457829003601f168201915b50505050508b8681518110611c0957611c08612c27565b5b6020026020010181905250818181548110611c2757611c26612c27565b5b90600052602060002090600702016003018054611c4390612978565b80601f0160208091040260200160405190810160405280929190818152602001828054611c6f90612978565b8015611cbc5780601f10611c9157610100808354040283529160200191611cbc565b820191906000526020600020905b815481529060010190602001808311611c9f57829003601f168201915b50505050508a8681518110611cd457611cd3612c27565b5b6020026020010181905250818181548110611cf257611cf1612c27565b5b90600052602060002090600702016004018054611d0e90612978565b80601f0160208091040260200160405190810160405280929190818152602001828054611d3a90612978565b8015611d875780601f10611d5c57610100808354040283529160200191611d87565b820191906000526020600020905b815481529060010190602001808311611d6a57829003601f168201915b5050505050898681518110611d9f57611d9e612c27565b5b6020026020010181905250818181548110611dbd57611dbc612c27565b5b906000526020600020906007020160050154888681518110611de257611de1612c27565b5b602002602001018181525050818181548110611e0157611e00612c27565b5b906000526020600020906007020160060160009054906101000a900460ff16878681518110611e3357611e32612c27565b5b6020026020010190151590811515815250508480611e5090612c85565b9550508080611e5e90612c85565b915050611a24565b5050508080611e7490612c85565b9150506119b6565b50505090919293949596565b6000604051905090565b600080fd5b600080fd5b600073ffffffffffffffffffffffffffffffffffffffff82169050919050565b6000611ec782611e9c565b9050919050565b611ed781611ebc565b8114611ee257600080fd5b50565b600081359050611ef481611ece565b92915050565b600080fd5b600080fd5b6000601f19601f8301169050919050565b7f4e487b7100000000000000000000000000000000000000000000000000000000600052604160045260246000fd5b611f4d82611f04565b810181811067ffffffffffffffff82111715611f6c57611f6b611f15565b5b80604052505050565b6000611f7f611e88565b9050611f8b8282611f44565b919050565b600067ffffffffffffffff821115611fab57611faa611f15565b5b611fb482611f04565b9050602081019050919050565b82818337600083830152505050565b6000611fe3611fde84611f90565b611f75565b905082815260208101848484011115611fff57611ffe611eff565b5b61200a848285611fc1565b509392505050565b600082601f83011261202757612026611efa565b5b8135612037848260208601611fd0565b91505092915050565b600080600080600060a0868803121561205c5761205b611e92565b5b600061206a88828901611ee5565b955050602086013567ffffffffffffffff81111561208b5761208a611e97565b5b61209788828901612012565b945050604086013567ffffffffffffffff8111156120b8576120b7611e97565b5b6120c488828901612012565b935050606086013567ffffffffffffffff8111156120e5576120e4611e97565b5b6120f188828901612012565b925050608086013567ffffffffffffffff81111561211257612111611e97565b5b61211e88828901612012565b9150509295509295909350565b6000819050919050565b61213e8161212b565b811461214957600080fd5b50565b60008135905061215b81612135565b92915050565b60006020828403121561217757612176611e92565b5b60006121858482850161214c565b91505092915050565b61219781611ebc565b82525050565b60006020820190506121b2600083018461218e565b92915050565b6000602082840312156121ce576121cd611e92565b5b60006121dc84828501611ee5565b91505092915050565b600081519050919050565b600082825260208201905092915050565b6000819050602082019050919050565b600081519050919050565b600082825260208201905092915050565b60005b8381101561224b578082015181840152602081019050612230565b60008484015250505050565b600061226282612211565b61226c818561221c565b935061227c81856020860161222d565b61228581611f04565b840191505092915050565b600061229c8383612257565b905092915050565b6000602082019050919050565b60006122bc826121e5565b6122c681856121f0565b9350836020820285016122d885612201565b8060005b8581101561231457848403895281516122f58582612290565b9450612300836122a4565b925060208a019950506001810190506122dc565b50829750879550505050505092915050565b600081519050919050565b600082825260208201905092915050565b6000819050602082019050919050565b61235b8161212b565b82525050565b600061236d8383612352565b60208301905092915050565b6000602082019050919050565b600061239182612326565b61239b8185612331565b93506123a683612342565b8060005b838110156123d75781516123be8882612361565b97506123c983612379565b9250506001810190506123aa565b5085935050505092915050565b600081519050919050565b600082825260208201905092915050565b6000819050602082019050919050565b60008115159050919050565b61242581612410565b82525050565b6000612437838361241c565b60208301905092915050565b6000602082019050919050565b600061245b826123e4565b61246581856123ef565b935061247083612400565b8060005b838110156124a1578151612488888261242b565b975061249383612443565b925050600181019050612474565b5085935050505092915050565b600060c08201905081810360008301526124c881896122b1565b905081810360208301526124dc81886122b1565b905081810360408301526124f081876122b1565b9050818103606083015261250481866122b1565b905081810360808301526125188185612386565b905081810360a083015261252c8184612450565b9050979650505050505050565b600080604083850312156125505761254f611e92565b5b600083013567ffffffffffffffff81111561256e5761256d611e97565b5b61257a85828601612012565b925050602083013567ffffffffffffffff81111561259b5761259a611e97565b5b6125a785828601612012565b9150509250929050565b6125ba81612410565b82525050565b60006020820190506125d560008301846125b1565b92915050565b600082825260208201905092915050565b60006125f782612211565b61260181856125db565b935061261181856020860161222d565b61261a81611f04565b840191505092915050565b600060a08201905061263a600083018861218e565b818103602083015261264c81876125ec565b9050818103604083015261266081866125ec565b9050818103606083015261267481856125ec565b905061268360808301846125b1565b9695505050505050565b6000602082840312156126a3576126a2611e92565b5b600082013567ffffffffffffffff8111156126c1576126c0611e97565b5b6126cd84828501612012565b91505092915050565b60006080820190506126eb600083018761218e565b81810360208301526126fd81866125ec565b9050818103604083015261271181856125ec565b9050818103606083015261272581846125ec565b905095945050505050565b6000806000806080858703121561274a57612749611e92565b5b600061275887828801611ee5565b945050602085013567ffffffffffffffff81111561277957612778611e97565b5b61278587828801612012565b935050604085013567ffffffffffffffff8111156127a6576127a5611e97565b5b6127b287828801612012565b925050606085013567ffffffffffffffff8111156127d3576127d2611e97565b5b6127df87828801612012565b91505092959194509250565b600081519050919050565b600082825260208201905092915050565b6000819050602082019050919050565b61282081611ebc565b82525050565b60006128328383612817565b60208301905092915050565b6000602082019050919050565b6000612856826127eb565b61286081856127f6565b935061286b83612807565b8060005b8381101561289c5781516128838882612826565b975061288e8361283e565b92505060018101905061286f565b5085935050505092915050565b600060e08201905081810360008301526128c3818a61284b565b905081810360208301526128d781896122b1565b905081810360408301526128eb81886122b1565b905081810360608301526128ff81876122b1565b9050818103608083015261291381866122b1565b905081810360a08301526129278185612386565b905081810360c083015261293b8184612450565b905098975050505050505050565b7f4e487b7100000000000000000000000000000000000000000000000000000000600052602260045260246000fd5b6000600282049050600182168061299057607f821691505b6020821081036129a3576129a2612949565b5b50919050565b60008190508160005260206000209050919050565b60006020601f8301049050919050565b600082821b905092915050565b600060088302612a0b7fffffffffffffffffffffffffffffffffffffffffffffffffffffffffffffffff826129ce565b612a1586836129ce565b95508019841693508086168417925050509392505050565b6000819050919050565b6000612a52612a4d612a488461212b565b612a2d565b61212b565b9050919050565b6000819050919050565b612a6c83612a37565b612a80612a7882612a59565b8484546129db565b825550505050565b600090565b612a95612a88565b612aa0818484612a63565b505050565b5b81811015612ac457612ab9600082612a8d565b600181019050612aa6565b5050565b601f821115612b0957612ada816129a9565b612ae3846129be565b81016020851015612af2578190505b612b06612afe856129be565b830182612aa5565b50505b505050565b600082821c905092915050565b6000612b2c60001984600802612b0e565b1980831691505092915050565b6000612b458383612b1b565b9150826002028217905092915050565b612b5e82612211565b67ffffffffffffffff811115612b7757612b76611f15565b5b612b818254612978565b612b8c828285612ac8565b600060209050601f831160018114612bbf5760008415612bad578287015190505b612bb78582612b39565b865550612c1f565b601f198416612bcd866129a9565b60005b82811015612bf557848901518255600182019150602085019450602081019050612bd0565b86831015612c125784890151612c0e601f891682612b1b565b8355505b6001600288020188555050505b505050505050565b7f4e487b7100000000000000000000000000000000000000000000000000000000600052603260045260246000fd5b7f4e487b7100000000000000000000000000000000000000000000000000000000600052601160045260246000fd5b6000612c908261212b565b91507fffffffffffffffffffffffffffffffffffffffffffffffffffffffffffffffff8203612cc257612cc1612c56565b5b600182019050919050565b600081905092915050565b6000612ce382612211565b612ced8185612ccd565b9350612cfd81856020860161222d565b80840191505092915050565b6000612d158284612cd8565b915081905092915050565b7f5573657220646f6573206e6f7420657869737400000000000000000000000000600082015250565b6000612d566013836125db565b9150612d6182612d20565b602082019050919050565b60006020820190508181036000830152612d8581612d49565b9050919050565b60008154612d9981612978565b612da38186612ccd565b94506001821660008114612dbe5760018114612dd357612e06565b60ff1983168652811515820286019350612e06565b612ddc856129a9565b60005b83811015612dfe57815481890152600182019150602081019050612ddf565b838801955050505b50505092915050565b6000612e1b8284612d8c565b915081905092915050565b7f57616c6c6574206164647265737320697320616c72656164792072656769737460008201527f6572656400000000000000000000000000000000000000000000000000000000602082015250565b6000612e826024836125db565b9150612e8d82612e26565b604082019050919050565b60006020820190508181036000830152612eb181612e75565b9050919050565b7f557365726e616d6520697320616c72656164792074616b656e00000000000000600082015250565b6000612eee6019836125db565b9150612ef982612eb8565b602082019050919050565b60006020820190508181036000830152612f1d81612ee1565b9050919050565b7f557365726e616d65206d757374206265206174206c656173742033206368617260008201527f616374657273206c6f6e67000000000000000000000000000000000000000000602082015250565b6000612f80602b836125db565b9150612f8b82612f24565b604082019050919050565b60006020820190508181036000830152612faf81612f73565b9050919050565b7f50617373776f726420686173682063616e6e6f7420626520656d707479000000600082015250565b6000612fec601d836125db565b9150612ff782612fb6565b602082019050919050565b6000602082019050818103600083015261301b81612fdf565b9050919050565b7f456d61696c2063616e6e6f7420626520656d7074790000000000000000000000600082015250565b60006130586015836125db565b915061306382613022565b602082019050919050565b600060208201905081810360008301526130878161304b565b9050919050565b7f496e76616c69642077616c6c6574206164647265737300000000000000000000600082015250565b60006130c46016836125db565b91506130cf8261308e565b602082019050919050565b600060208201905081810360008301526130f3816130b7565b9050919050565b7f53656e646572206d75737420626520746865207265676973746572696e67207760008201527f616c6c6574000000000000000000000000000000000000000000000000000000602082015250565b60006131566025836125db565b9150613161826130fa565b604082019050919050565b6000602082019050818103600083015261318581613149565b9050919050565b60006131978261212b565b91506131a28361212b565b92508282019050808211156131ba576131b9612c56565b5b9291505056fea26469706673582212206eeabc6fa1314434f92254404ba8a4b5d90457dc3dfe84de077166178d50421564736f6c63430008130033",
  "immutableReferences": {},
  "source": "// SPDX-License-Identifier: MIT\r\npragma solidity >=0.4.22 <0.9.0;\r\n\r\ncontract userManagement {\r\n    struct User {\r\n        address _userAddress;\r\n        string _userName;\r\n        string _userPassword; // Will store hashed password\r\n        string _userEmail;\r\n        bool _exist;\r\n    }\r\n\r\n    struct Notification {\r\n        address _userAddress;\r\n        string _type;\r\n        string _message;\r\n        string _parameter;\r\n        string _value;\r\n        uint256 _timestamp;\r\n        bool _isRead;\r\n    }\r\n\r\n    mapping(address => User) public users;\r\n    mapping(string => User) public usernames;\r\n    address[] public userAddresses;\r\n    \r\n    // Mapping from user address to their notifications\r\n    mapping(address => Notification[]) private userNotifications;\r\n    \r\n    modifier userNotExists(address wallet, string memory username) {\r\n        require(!users[wallet]._exist, \"Wallet address is already registered\");\r\n        require(!usernames[username]._exist, \"Username is already taken\");\r\n        _;\r\n    }\r\n\r\n    function userSignUp(\r\n        address wallet,\r\n        string memory username,\r\n        string memory hashedPassword,\r\n        string memory email\r\n    ) public userNotExists(wallet, username) {\r\n        require(bytes(username).length >= 3, \"Username must be at least 3 characters long\");\r\n        require(bytes(hashedPassword).length > 0, \"Password hash cannot be empty\");\r\n        require(bytes(email).length > 0, \"Email cannot be empty\");\r\n        require(wallet != address(0), \"Invalid wallet address\");\r\n        require(msg.sender == wallet, \"Sender must be the registering wallet\");\r\n\r\n        User memory newUser = User({\r\n            _userAddress: wallet,\r\n            _userName: username,\r\n            _userPassword: hashedPassword,\r\n            _userEmail: email,\r\n            _exist: true\r\n        });\r\n\r\n        users[wallet] = newUser;\r\n        usernames[username] = newUser;\r\n        userAddresses.push(wallet);\r\n    }\r\n\r\n    function userLogin(string memory username, string memory hashedPassword) public view returns (bool) {\r\n        require(usernames[username]._exist, \"User does not exist\");\r\n        \r\n        // Direct comparison of hashed passwords\r\n        return keccak256(abi.encodePacked(usernames[username]._userPassword)) == \r\n               keccak256(abi.encodePacked(hashedPassword));\r\n    }\r\n\r\n    function viewUserByUsername(string memory username) public view returns (\r\n        address,\r\n        string memory,\r\n        string memory,\r\n        string memory\r\n    ) {\r\n        require(usernames[username]._exist, \"User does not exist\");\r\n        User memory user = usernames[username];\r\n        return (\r\n            user._userAddress,\r\n            user._userName,\r\n            user._userPassword,\r\n            user._userEmail\r\n        );\r\n    }\r\n\r\n    // New notification functions\r\n    function addNotification(\r\n        address userAddress,\r\n        string memory notificationType,\r\n        string memory message,\r\n        string memory parameter,\r\n        string memory value\r\n    ) public {\r\n        Notification memory newNotification = Notification({\r\n            _userAddress: userAddress,\r\n            _type: notificationType,\r\n            _message: message,\r\n            _parameter: parameter,\r\n            _value: value,\r\n            _timestamp: block.timestamp,\r\n            _isRead: false\r\n        });\r\n\r\n        userNotifications[userAddress].push(newNotification);\r\n    }\r\n\r\n    function getUserNotifications(address userAddress) \r\n        public \r\n        view \r\n        returns (\r\n            string[] memory types,\r\n            string[] memory messages,\r\n            string[] memory parameters,\r\n            string[] memory values,\r\n            uint256[] memory timestamps,\r\n            bool[] memory isRead\r\n        ) \r\n    {\r\n        Notification[] storage notifications = userNotifications[userAddress];\r\n        uint256 length = notifications.length;\r\n\r\n        types = new string[](length);\r\n        messages = new string[](length);\r\n        parameters = new string[](length);\r\n        values = new string[](length);\r\n        timestamps = new uint256[](length);\r\n        isRead = new bool[](length);\r\n\r\n        for (uint256 i = 0; i < length; i++) {\r\n            types[i] = notifications[i]._type;\r\n            messages[i] = notifications[i]._message;\r\n            parameters[i] = notifications[i]._parameter;\r\n            values[i] = notifications[i]._value;\r\n            timestamps[i] = notifications[i]._timestamp;\r\n            isRead[i] = notifications[i]._isRead;\r\n        }\r\n\r\n        return (types, messages, parameters, values, timestamps, isRead);\r\n    }\r\n\r\n    function getAllNotifications() \r\n        public \r\n        view \r\n        returns (\r\n            address[] memory userAddresses,\r\n            string[] memory types,\r\n            string[] memory messages,\r\n            string[] memory parameters,\r\n            string[] memory values,\r\n            uint256[] memory timestamps,\r\n            bool[] memory isRead\r\n        ) \r\n    {\r\n        // First, calculate total number of notifications\r\n        uint256 totalNotifications = 0;\r\n        for (uint256 i = 0; i < userAddresses.length; i++) {\r\n            totalNotifications += userNotifications[userAddresses[i]].length;\r\n        }\r\n\r\n        // Initialize arrays with total size\r\n        userAddresses = new address[](totalNotifications);\r\n        types = new string[](totalNotifications);\r\n        messages = new string[](totalNotifications);\r\n        parameters = new string[](totalNotifications);\r\n        values = new string[](totalNotifications);\r\n        timestamps = new uint256[](totalNotifications);\r\n        isRead = new bool[](totalNotifications);\r\n\r\n        // Fill arrays with notifications from all users\r\n        uint256 currentIndex = 0;\r\n        for (uint256 i = 0; i < userAddresses.length; i++) {\r\n            address currentUser = userAddresses[i];\r\n            Notification[] storage userNotifs = userNotifications[currentUser];\r\n            \r\n            for (uint256 j = 0; j < userNotifs.length; j++) {\r\n                userAddresses[currentIndex] = currentUser;\r\n                types[currentIndex] = userNotifs[j]._type;\r\n                messages[currentIndex] = userNotifs[j]._message;\r\n                parameters[currentIndex] = userNotifs[j]._parameter;\r\n                values[currentIndex] = userNotifs[j]._value;\r\n                timestamps[currentIndex] = userNotifs[j]._timestamp;\r\n                isRead[currentIndex] = userNotifs[j]._isRead;\r\n                currentIndex++;\r\n            }\r\n        }\r\n\r\n        return (userAddresses, types, messages, parameters, values, timestamps, isRead);\r\n    }\r\n}",
  "sourcePath": "C:\\Users\\HP\\Desktop\\MLEW\\IoT-based-Power-and-Water-Theft-Detection-in-urban-cities-MLEW-Final-Project\\contracts\\userManagement.sol",
  "compiler": {
    "name": "solc",
    "version": "0.8.19+commit.7dd6d404.Emscripten.clang"
  },
  "schemaVersion": "3.4.16",
  "updatedAt": "2025-03-15T12:03:39.798Z",
  "networkType": "ethereum",
  "devdoc": {
    "kind": "dev",
    "methods": {},
    "version": 1
  },
  "userdoc": {
    "kind": "user",
    "methods": {},
    "version": 1
  }
}