{
  "contractName": "userManagement",
  "abi": [
    {
      "inputs": [
        {
          "internalType": "uint256",
          "name": "",
          "type": "uint256"
        }
      ],
      "name": "userAddresses",
      "outputs": [
        {
          "internalType": "address",
          "name": "",
          "type": "address"
        }
      ],
      "stateMutability": "view",
      "type": "function",
      "constant": true
    },
    {
      "inputs": [
        {
          "internalType": "string",
          "name": "",
          "type": "string"
        }
      ],
      "name": "usernames",
      "outputs": [
        {
          "internalType": "address",
          "name": "_userAddress",
          "type": "address"
        },
        {
          "internalType": "string",
          "name": "_userName",
          "type": "string"
        },
        {
          "internalType": "string",
          "name": "_userPassword",
          "type": "string"
        },
        {
          "internalType": "string",
          "name": "_userEmail",
          "type": "string"
        },
        {
          "internalType": "bool",
          "name": "_exist",
          "type": "bool"
        }
      ],
      "stateMutability": "view",
      "type": "function",
      "constant": true
    },
    {
      "inputs": [
        {
          "internalType": "address",
          "name": "",
          "type": "address"
        }
      ],
      "name": "users",
      "outputs": [
        {
          "internalType": "address",
          "name": "_userAddress",
          "type": "address"
        },
        {
          "internalType": "string",
          "name": "_userName",
          "type": "string"
        },
        {
          "internalType": "string",
          "name": "_userPassword",
          "type": "string"
        },
        {
          "internalType": "string",
          "name": "_userEmail",
          "type": "string"
        },
        {
          "internalType": "bool",
          "name": "_exist",
          "type": "bool"
        }
      ],
      "stateMutability": "view",
      "type": "function",
      "constant": true
    },
    {
      "inputs": [
        {
          "internalType": "address",
          "name": "wallet",
          "type": "address"
        },
        {
          "internalType": "string",
          "name": "username",
          "type": "string"
        },
        {
          "internalType": "string",
          "name": "hashedPassword",
          "type": "string"
        },
        {
          "internalType": "string",
          "name": "email",
          "type": "string"
        }
      ],
      "name": "userSignUp",
      "outputs": [],
      "stateMutability": "nonpayable",
      "type": "function"
    },
    {
      "inputs": [
        {
          "internalType": "string",
          "name": "username",
          "type": "string"
        },
        {
          "internalType": "string",
          "name": "hashedPassword",
          "type": "string"
        }
      ],
      "name": "userLogin",
      "outputs": [
        {
          "internalType": "bool",
          "name": "",
          "type": "bool"
        }
      ],
      "stateMutability": "view",
      "type": "function",
      "constant": true
    },
    {
      "inputs": [
        {
          "internalType": "string",
          "name": "username",
          "type": "string"
        }
      ],
      "name": "viewUserByUsername",
      "outputs": [
        {
          "internalType": "address",
          "name": "",
          "type": "address"
        },
        {
          "internalType": "string",
          "name": "",
          "type": "string"
        },
        {
          "internalType": "string",
          "name": "",
          "type": "string"
        },
        {
          "internalType": "string",
          "name": "",
          "type": "string"
        }
      ],
      "stateMutability": "view",
      "type": "function",
      "constant": true
    }
  ],
  "bytecode": "0x608060405234801561001057600080fd5b50611be5806100206000396000f3fe608060405234801561001057600080fd5b50600436106100625760003560e01c8063502c9bd5146100675780635b4a3abe14610097578063a87430ba146100c7578063aaee301f146100fb578063ba81636c1461012f578063c7917e5c14610162575b600080fd5b610081600480360381019061007c9190610ef7565b61017e565b60405161008e9190610f65565b60405180910390f35b6100b160048036038101906100ac91906110c6565b6101bd565b6040516100be9190611159565b60405180910390f35b6100e160048036038101906100dc91906111a0565b6102a4565b6040516100f295949392919061124c565b60405180910390f35b610115600480360381019061011091906112b4565b61049f565b60405161012695949392919061124c565b60405180910390f35b610149600480360381019061014491906112b4565b6106b0565b60405161015994939291906112fd565b60405180910390f35b61017c60048036038101906101779190611357565b61099d565b005b6002818154811061018e57600080fd5b906000526020600020016000915054906101000a900473ffffffffffffffffffffffffffffffffffffffff1681565b60006001836040516101cf919061144e565b908152602001604051809103902060040160009054906101000a900460ff1661022d576040517f08c379a0000000000000000000000000000000000000000000000000000000008152600401610224906114b1565b60405180910390fd5b8160405160200161023e919061144e565b60405160208183030381529060405280519060200120600184604051610264919061144e565b908152602001604051809103902060020160405160200161028591906115c9565b6040516020818303038152906040528051906020012014905092915050565b60006020528060005260406000206000915090508060000160009054906101000a900473ffffffffffffffffffffffffffffffffffffffff16908060010180546102ed90611500565b80601f016020809104026020016040519081016040528092919081815260200182805461031990611500565b80156103665780601f1061033b57610100808354040283529160200191610366565b820191906000526020600020905b81548152906001019060200180831161034957829003601f168201915b50505050509080600201805461037b90611500565b80601f01602080910402602001604051908101604052809291908181526020018280546103a790611500565b80156103f45780601f106103c9576101008083540402835291602001916103f4565b820191906000526020600020905b8154815290600101906020018083116103d757829003601f168201915b50505050509080600301805461040990611500565b80601f016020809104026020016040519081016040528092919081815260200182805461043590611500565b80156104825780601f1061045757610100808354040283529160200191610482565b820191906000526020600020905b81548152906001019060200180831161046557829003601f168201915b5050505050908060040160009054906101000a900460ff16905085565b6001818051602081018201805184825260208301602085012081835280955050505050506000915090508060000160009054906101000a900473ffffffffffffffffffffffffffffffffffffffff16908060010180546104fe90611500565b80601f016020809104026020016040519081016040528092919081815260200182805461052a90611500565b80156105775780601f1061054c57610100808354040283529160200191610577565b820191906000526020600020905b81548152906001019060200180831161055a57829003601f168201915b50505050509080600201805461058c90611500565b80601f01602080910402602001604051908101604052809291908181526020018280546105b890611500565b80156106055780601f106105da57610100808354040283529160200191610605565b820191906000526020600020905b8154815290600101906020018083116105e857829003601f168201915b50505050509080600301805461061a90611500565b80601f016020809104026020016040519081016040528092919081815260200182805461064690611500565b80156106935780601f1061066857610100808354040283529160200191610693565b820191906000526020600020905b81548152906001019060200180831161067657829003601f168201915b5050505050908060040160009054906101000a900460ff16905085565b600060608060606001856040516106c7919061144e565b908152602001604051809103902060040160009054906101000a900460ff16610725576040517f08c379a000000000000000000000000000000000000000000000000000000000815260040161071c906114b1565b60405180910390fd5b6000600186604051610737919061144e565b90815260200160405180910390206040518060a00160405290816000820160009054906101000a900473ffffffffffffffffffffffffffffffffffffffff1673ffffffffffffffffffffffffffffffffffffffff1673ffffffffffffffffffffffffffffffffffffffff1681526020016001820180546107b690611500565b80601f01602080910402602001604051908101604052809291908181526020018280546107e290611500565b801561082f5780601f106108045761010080835404028352916020019161082f565b820191906000526020600020905b81548152906001019060200180831161081257829003601f168201915b5050505050815260200160028201805461084890611500565b80601f016020809104026020016040519081016040528092919081815260200182805461087490611500565b80156108c15780601f10610896576101008083540402835291602001916108c1565b820191906000526020600020905b8154815290600101906020018083116108a457829003601f168201915b505050505081526020016003820180546108da90611500565b80601f016020809104026020016040519081016040528092919081815260200182805461090690611500565b80156109535780601f1061092857610100808354040283529160200191610953565b820191906000526020600020905b81548152906001019060200180831161093657829003601f168201915b505050505081526020016004820160009054906101000a900460ff161515151581525050905080600001518160200151826040015183606001519450945094509450509193509193565b83836000808373ffffffffffffffffffffffffffffffffffffffff1673ffffffffffffffffffffffffffffffffffffffff16815260200190815260200160002060040160009054906101000a900460ff1615610a2e576040517f08c379a0000000000000000000000000000000000000000000000000000000008152600401610a2590611652565b60405180910390fd5b600181604051610a3e919061144e565b908152602001604051809103902060040160009054906101000a900460ff1615610a9d576040517f08c379a0000000000000000000000000000000000000000000000000000000008152600401610a94906116be565b60405180910390fd5b600385511015610ae2576040517f08c379a0000000000000000000000000000000000000000000000000000000008152600401610ad990611750565b60405180910390fd5b6000845111610b26576040517f08c379a0000000000000000000000000000000000000000000000000000000008152600401610b1d906117bc565b60405180910390fd5b6000835111610b6a576040517f08c379a0000000000000000000000000000000000000000000000000000000008152600401610b6190611828565b60405180910390fd5b600073ffffffffffffffffffffffffffffffffffffffff168673ffffffffffffffffffffffffffffffffffffffff1603610bd9576040517f08c379a0000000000000000000000000000000000000000000000000000000008152600401610bd090611894565b60405180910390fd5b8573ffffffffffffffffffffffffffffffffffffffff163373ffffffffffffffffffffffffffffffffffffffff1614610c47576040517f08c379a0000000000000000000000000000000000000000000000000000000008152600401610c3e90611926565b60405180910390fd5b60006040518060a001604052808873ffffffffffffffffffffffffffffffffffffffff168152602001878152602001868152602001858152602001600115158152509050806000808973ffffffffffffffffffffffffffffffffffffffff1673ffffffffffffffffffffffffffffffffffffffff16815260200190815260200160002060008201518160000160006101000a81548173ffffffffffffffffffffffffffffffffffffffff021916908373ffffffffffffffffffffffffffffffffffffffff1602179055506020820151816001019081610d269190611add565b506040820151816002019081610d3c9190611add565b506060820151816003019081610d529190611add565b5060808201518160040160006101000a81548160ff02191690831515021790555090505080600187604051610d87919061144e565b908152602001604051809103902060008201518160000160006101000a81548173ffffffffffffffffffffffffffffffffffffffff021916908373ffffffffffffffffffffffffffffffffffffffff1602179055506020820151816001019081610df19190611add565b506040820151816002019081610e079190611add565b506060820151816003019081610e1d9190611add565b5060808201518160040160006101000a81548160ff0219169083151502179055509050506002879080600181540180825580915050600190039060005260206000200160009091909190916101000a81548173ffffffffffffffffffffffffffffffffffffffff021916908373ffffffffffffffffffffffffffffffffffffffff16021790555050505050505050565b6000604051905090565b600080fd5b600080fd5b6000819050919050565b610ed481610ec1565b8114610edf57600080fd5b50565b600081359050610ef181610ecb565b92915050565b600060208284031215610f0d57610f0c610eb7565b5b6000610f1b84828501610ee2565b91505092915050565b600073ffffffffffffffffffffffffffffffffffffffff82169050919050565b6000610f4f82610f24565b9050919050565b610f5f81610f44565b82525050565b6000602082019050610f7a6000830184610f56565b92915050565b600080fd5b600080fd5b6000601f19601f8301169050919050565b7f4e487b7100000000000000000000000000000000000000000000000000000000600052604160045260246000fd5b610fd382610f8a565b810181811067ffffffffffffffff82111715610ff257610ff1610f9b565b5b80604052505050565b6000611005610ead565b90506110118282610fca565b919050565b600067ffffffffffffffff82111561103157611030610f9b565b5b61103a82610f8a565b9050602081019050919050565b82818337600083830152505050565b600061106961106484611016565b610ffb565b90508281526020810184848401111561108557611084610f85565b5b611090848285611047565b509392505050565b600082601f8301126110ad576110ac610f80565b5b81356110bd848260208601611056565b91505092915050565b600080604083850312156110dd576110dc610eb7565b5b600083013567ffffffffffffffff8111156110fb576110fa610ebc565b5b61110785828601611098565b925050602083013567ffffffffffffffff81111561112857611127610ebc565b5b61113485828601611098565b9150509250929050565b60008115159050919050565b6111538161113e565b82525050565b600060208201905061116e600083018461114a565b92915050565b61117d81610f44565b811461118857600080fd5b50565b60008135905061119a81611174565b92915050565b6000602082840312156111b6576111b5610eb7565b5b60006111c48482850161118b565b91505092915050565b600081519050919050565b600082825260208201905092915050565b60005b838110156112075780820151818401526020810190506111ec565b60008484015250505050565b600061121e826111cd565b61122881856111d8565b93506112388185602086016111e9565b61124181610f8a565b840191505092915050565b600060a0820190506112616000830188610f56565b81810360208301526112738187611213565b905081810360408301526112878186611213565b9050818103606083015261129b8185611213565b90506112aa608083018461114a565b9695505050505050565b6000602082840312156112ca576112c9610eb7565b5b600082013567ffffffffffffffff8111156112e8576112e7610ebc565b5b6112f484828501611098565b91505092915050565b60006080820190506113126000830187610f56565b81810360208301526113248186611213565b905081810360408301526113388185611213565b9050818103606083015261134c8184611213565b905095945050505050565b6000806000806080858703121561137157611370610eb7565b5b600061137f8782880161118b565b945050602085013567ffffffffffffffff8111156113a05761139f610ebc565b5b6113ac87828801611098565b935050604085013567ffffffffffffffff8111156113cd576113cc610ebc565b5b6113d987828801611098565b925050606085013567ffffffffffffffff8111156113fa576113f9610ebc565b5b61140687828801611098565b91505092959194509250565b600081905092915050565b6000611428826111cd565b6114328185611412565b93506114428185602086016111e9565b80840191505092915050565b600061145a828461141d565b915081905092915050565b7f5573657220646f6573206e6f7420657869737400000000000000000000000000600082015250565b600061149b6013836111d8565b91506114a682611465565b602082019050919050565b600060208201905081810360008301526114ca8161148e565b9050919050565b7f4e487b7100000000000000000000000000000000000000000000000000000000600052602260045260246000fd5b6000600282049050600182168061151857607f821691505b60208210810361152b5761152a6114d1565b5b50919050565b60008190508160005260206000209050919050565b6000815461155381611500565b61155d8186611412565b94506001821660008114611578576001811461158d576115c0565b60ff19831686528115158202860193506115c0565b61159685611531565b60005b838110156115b857815481890152600182019150602081019050611599565b838801955050505b50505092915050565b60006115d58284611546565b915081905092915050565b7f57616c6c6574206164647265737320697320616c72656164792072656769737460008201527f6572656400000000000000000000000000000000000000000000000000000000602082015250565b600061163c6024836111d8565b9150611647826115e0565b604082019050919050565b6000602082019050818103600083015261166b8161162f565b9050919050565b7f557365726e616d6520697320616c72656164792074616b656e00000000000000600082015250565b60006116a86019836111d8565b91506116b382611672565b602082019050919050565b600060208201905081810360008301526116d78161169b565b9050919050565b7f557365726e616d65206d757374206265206174206c656173742033206368617260008201527f616374657273206c6f6e67000000000000000000000000000000000000000000602082015250565b600061173a602b836111d8565b9150611745826116de565b604082019050919050565b600060208201905081810360008301526117698161172d565b9050919050565b7f50617373776f726420686173682063616e6e6f7420626520656d707479000000600082015250565b60006117a6601d836111d8565b91506117b182611770565b602082019050919050565b600060208201905081810360008301526117d581611799565b9050919050565b7f456d61696c2063616e6e6f7420626520656d7074790000000000000000000000600082015250565b60006118126015836111d8565b915061181d826117dc565b602082019050919050565b6000602082019050818103600083015261184181611805565b9050919050565b7f496e76616c69642077616c6c6574206164647265737300000000000000000000600082015250565b600061187e6016836111d8565b915061188982611848565b602082019050919050565b600060208201905081810360008301526118ad81611871565b9050919050565b7f53656e646572206d75737420626520746865207265676973746572696e67207760008201527f616c6c6574000000000000000000000000000000000000000000000000000000602082015250565b60006119106025836111d8565b915061191b826118b4565b604082019050919050565b6000602082019050818103600083015261193f81611903565b9050919050565b60006020601f8301049050919050565b600082821b905092915050565b6000600883026119937fffffffffffffffffffffffffffffffffffffffffffffffffffffffffffffffff82611956565b61199d8683611956565b95508019841693508086168417925050509392505050565b6000819050919050565b60006119da6119d56119d084610ec1565b6119b5565b610ec1565b9050919050565b6000819050919050565b6119f4836119bf565b611a08611a00826119e1565b848454611963565b825550505050565b600090565b611a1d611a10565b611a288184846119eb565b505050565b5b81811015611a4c57611a41600082611a15565b600181019050611a2e565b5050565b601f821115611a9157611a6281611531565b611a6b84611946565b81016020851015611a7a578190505b611a8e611a8685611946565b830182611a2d565b50505b505050565b600082821c905092915050565b6000611ab460001984600802611a96565b1980831691505092915050565b6000611acd8383611aa3565b9150826002028217905092915050565b611ae6826111cd565b67ffffffffffffffff811115611aff57611afe610f9b565b5b611b098254611500565b611b14828285611a50565b600060209050601f831160018114611b475760008415611b35578287015190505b611b3f8582611ac1565b865550611ba7565b601f198416611b5586611531565b60005b82811015611b7d57848901518255600182019150602085019450602081019050611b58565b86831015611b9a5784890151611b96601f891682611aa3565b8355505b6001600288020188555050505b50505050505056fea2646970667358221220cb432544337267b6f045aac2de720582d208610686e50ca75c3725455d93d36d64736f6c63430008130033",
  "immutableReferences": {},
  "source": "// SPDX-License-Identifier: MIT\r\npragma solidity >=0.4.22 <0.9.0;\r\n\r\ncontract userManagement {\r\n    struct User {\r\n        address _userAddress;\r\n        string _userName;\r\n        string _userPassword; // Will store hashed password\r\n        string _userEmail;\r\n        bool _exist;\r\n    }\r\n\r\n    struct Notification {\r\n        address _sender;\r\n        string _message;\r\n        string _paremater;\r\n        string _value;\r\n    }\r\n\r\n    mapping(address => User) public users;\r\n    mapping(string => User) public usernames;\r\n    address[] public userAddresses;\r\n\r\n    modifier userNotExists(address wallet, string memory username) {\r\n        require(!users[wallet]._exist, \"Wallet address is already registered\");\r\n        require(!usernames[username]._exist, \"Username is already taken\");\r\n        _;\r\n    }\r\n\r\n    function userSignUp(\r\n        address wallet,\r\n        string memory username,\r\n        string memory hashedPassword,\r\n        string memory email\r\n    ) public userNotExists(wallet, username) {\r\n        require(bytes(username).length >= 3, \"Username must be at least 3 characters long\");\r\n        require(bytes(hashedPassword).length > 0, \"Password hash cannot be empty\");\r\n        require(bytes(email).length > 0, \"Email cannot be empty\");\r\n        require(wallet != address(0), \"Invalid wallet address\");\r\n        require(msg.sender == wallet, \"Sender must be the registering wallet\");\r\n\r\n        User memory newUser = User({\r\n            _userAddress: wallet,\r\n            _userName: username,\r\n            _userPassword: hashedPassword,\r\n            _userEmail: email,\r\n            _exist: true\r\n        });\r\n\r\n        users[wallet] = newUser;\r\n        usernames[username] = newUser;\r\n        userAddresses.push(wallet);\r\n    }\r\n\r\n    function userLogin(string memory username, string memory hashedPassword) public view returns (bool) {\r\n        require(usernames[username]._exist, \"User does not exist\");\r\n        \r\n        // Direct comparison of hashed passwords\r\n        return keccak256(abi.encodePacked(usernames[username]._userPassword)) == \r\n               keccak256(abi.encodePacked(hashedPassword));\r\n    }\r\n\r\n    function viewUserByUsername(string memory username) public view returns (\r\n        address,\r\n        string memory,\r\n        string memory,\r\n        string memory\r\n    ) {\r\n        require(usernames[username]._exist, \"User does not exist\");\r\n        User memory user = usernames[username];\r\n        return (\r\n            user._userAddress,\r\n            user._userName,\r\n            user._userPassword,\r\n            user._userEmail\r\n        );\r\n    }\r\n}\r\n",
  "sourcePath": "C:\\Users\\HP\\Desktop\\MLEW\\IoT-based-Power-and-Water-Theft-Detection-in-urban-cities-MLEW-Final-Project\\contracts\\userManagement.sol",
  "compiler": {
    "name": "solc",
    "version": "0.8.19+commit.7dd6d404.Emscripten.clang"
  },
  "schemaVersion": "3.4.16",
  "updatedAt": "2025-03-15T10:29:02.712Z",
  "networkType": "ethereum",
  "devdoc": {
    "kind": "dev",
    "methods": {},
    "version": 1
  },
  "userdoc": {
    "kind": "user",
    "methods": {},
    "version": 1
  }
}