{
  "contractName": "userManagement",
  "abi": [
    {
      "inputs": [
        {
          "internalType": "uint256",
          "name": "",
          "type": "uint256"
        }
      ],
      "name": "userAddresses",
      "outputs": [
        {
          "internalType": "address",
          "name": "",
          "type": "address"
        }
      ],
      "stateMutability": "view",
      "type": "function",
      "constant": true
    },
    {
      "inputs": [
        {
          "internalType": "string",
          "name": "",
          "type": "string"
        }
      ],
      "name": "usernames",
      "outputs": [
        {
          "internalType": "address",
          "name": "_userAddress",
          "type": "address"
        },
        {
          "internalType": "string",
          "name": "_userName",
          "type": "string"
        },
        {
          "internalType": "string",
          "name": "_userPassword",
          "type": "string"
        },
        {
          "internalType": "string",
          "name": "_userEmail",
          "type": "string"
        },
        {
          "internalType": "bool",
          "name": "_exist",
          "type": "bool"
        }
      ],
      "stateMutability": "view",
      "type": "function",
      "constant": true
    },
    {
      "inputs": [
        {
          "internalType": "address",
          "name": "",
          "type": "address"
        }
      ],
      "name": "users",
      "outputs": [
        {
          "internalType": "address",
          "name": "_userAddress",
          "type": "address"
        },
        {
          "internalType": "string",
          "name": "_userName",
          "type": "string"
        },
        {
          "internalType": "string",
          "name": "_userPassword",
          "type": "string"
        },
        {
          "internalType": "string",
          "name": "_userEmail",
          "type": "string"
        },
        {
          "internalType": "bool",
          "name": "_exist",
          "type": "bool"
        }
      ],
      "stateMutability": "view",
      "type": "function",
      "constant": true
    },
    {
      "inputs": [
        {
          "internalType": "address",
          "name": "wallet",
          "type": "address"
        },
        {
          "internalType": "string",
          "name": "username",
          "type": "string"
        },
        {
          "internalType": "string",
          "name": "hashedPassword",
          "type": "string"
        },
        {
          "internalType": "string",
          "name": "email",
          "type": "string"
        }
      ],
      "name": "userSignUp",
      "outputs": [],
      "stateMutability": "nonpayable",
      "type": "function"
    },
    {
      "inputs": [
        {
          "internalType": "string",
          "name": "username",
          "type": "string"
        },
        {
          "internalType": "string",
          "name": "hashedPassword",
          "type": "string"
        }
      ],
      "name": "userLogin",
      "outputs": [
        {
          "internalType": "bool",
          "name": "",
          "type": "bool"
        }
      ],
      "stateMutability": "view",
      "type": "function",
      "constant": true
    },
    {
      "inputs": [
        {
          "internalType": "string",
          "name": "username",
          "type": "string"
        }
      ],
      "name": "viewUserByUsername",
      "outputs": [
        {
          "internalType": "address",
          "name": "",
          "type": "address"
        },
        {
          "internalType": "string",
          "name": "",
          "type": "string"
        },
        {
          "internalType": "string",
          "name": "",
          "type": "string"
        },
        {
          "internalType": "string",
          "name": "",
          "type": "string"
        }
      ],
      "stateMutability": "view",
      "type": "function",
      "constant": true
    },
    {
      "inputs": [
        {
          "internalType": "address",
          "name": "userAddress",
          "type": "address"
        },
        {
          "internalType": "string",
          "name": "notificationType",
          "type": "string"
        },
        {
          "internalType": "string",
          "name": "message",
          "type": "string"
        },
        {
          "internalType": "string",
          "name": "parameter",
          "type": "string"
        },
        {
          "internalType": "string",
          "name": "value",
          "type": "string"
        }
      ],
      "name": "addNotification",
      "outputs": [],
      "stateMutability": "nonpayable",
      "type": "function"
    },
    {
      "inputs": [
        {
          "internalType": "address",
          "name": "userAddress",
          "type": "address"
        }
      ],
      "name": "getUserNotifications",
      "outputs": [
        {
          "internalType": "string[]",
          "name": "types",
          "type": "string[]"
        },
        {
          "internalType": "string[]",
          "name": "messages",
          "type": "string[]"
        },
        {
          "internalType": "string[]",
          "name": "parameters",
          "type": "string[]"
        },
        {
          "internalType": "string[]",
          "name": "values",
          "type": "string[]"
        },
        {
          "internalType": "uint256[]",
          "name": "timestamps",
          "type": "uint256[]"
        },
        {
          "internalType": "bool[]",
          "name": "isRead",
          "type": "bool[]"
        }
      ],
      "stateMutability": "view",
      "type": "function",
      "constant": true
    },
    {
      "inputs": [
        {
          "internalType": "address",
          "name": "userAddress",
          "type": "address"
        }
      ],
      "name": "getUnreadNotificationCount",
      "outputs": [
        {
          "internalType": "uint256",
          "name": "",
          "type": "uint256"
        }
      ],
      "stateMutability": "view",
      "type": "function",
      "constant": true
    },
    {
      "inputs": [
        {
          "internalType": "address",
          "name": "userAddress",
          "type": "address"
        },
        {
          "internalType": "uint256",
          "name": "notificationIndex",
          "type": "uint256"
        }
      ],
      "name": "markNotificationAsRead",
      "outputs": [],
      "stateMutability": "nonpayable",
      "type": "function"
    },
    {
      "inputs": [
        {
          "internalType": "address",
          "name": "userAddress",
          "type": "address"
        }
      ],
      "name": "markAllNotificationsAsRead",
      "outputs": [],
      "stateMutability": "nonpayable",
      "type": "function"
    }
  ],
  "bytecode": "0x608060405234801561001057600080fd5b506131fa806100206000396000f3fe608060405234801561001057600080fd5b50600436106100a95760003560e01c80635b4a3abe116100715780635b4a3abe146101675780639ef39d7814610197578063a87430ba146101c7578063aaee301f146101fb578063ba81636c1461022f578063c7917e5c14610262576100a9565b80631bd9aa09146100ae578063278811df146100ca578063436e119c146100e6578063502c9bd51461010257806357f3135814610132575b600080fd5b6100c860048036038101906100c39190612002565b61027e565b005b6100e460048036038101906100df91906120ed565b61049a565b005b61010060048036038101906100fb9190612150565b610676565b005b61011c60048036038101906101179190612190565b610927565b60405161012991906121cc565b60405180910390f35b61014c600480360381019061014791906120ed565b610966565b60405161015e969594939291906124b0565b60405180910390f35b610181600480360381019061017c919061253b565b611012565b60405161018e91906125c2565b60405180910390f35b6101b160048036038101906101ac91906120ed565b6110f9565b6040516101be91906125ec565b60405180910390f35b6101e160048036038101906101dc91906120ed565b611241565b6040516101f2959493929190612651565b60405180910390f35b610215600480360381019061021091906126b9565b61143c565b604051610226959493929190612651565b60405180910390f35b610249600480360381019061024491906126b9565b61164d565b6040516102599493929190612702565b60405180910390f35b61027c6004803603810190610277919061275c565b61193a565b005b846000808273ffffffffffffffffffffffffffffffffffffffff1673ffffffffffffffffffffffffffffffffffffffff16815260200190815260200160002060040160009054906101000a900460ff1661030d576040517f08c379a000000000000000000000000000000000000000000000000000000000815260040161030490612863565b60405180910390fd5b60006040518060e001604052808873ffffffffffffffffffffffffffffffffffffffff168152602001878152602001868152602001858152602001848152602001428152602001600015158152509050600360008873ffffffffffffffffffffffffffffffffffffffff1673ffffffffffffffffffffffffffffffffffffffff16815260200190815260200160002081908060018154018082558091505060019003906000526020600020906007020160009091909190915060008201518160000160006101000a81548173ffffffffffffffffffffffffffffffffffffffff021916908373ffffffffffffffffffffffffffffffffffffffff16021790555060208201518160010190816104229190612a8f565b5060408201518160020190816104389190612a8f565b50606082015181600301908161044e9190612a8f565b5060808201518160040190816104649190612a8f565b5060a0820151816005015560c08201518160060160006101000a81548160ff021916908315150217905550505050505050505050565b806000808273ffffffffffffffffffffffffffffffffffffffff1673ffffffffffffffffffffffffffffffffffffffff16815260200190815260200160002060040160009054906101000a900460ff16610529576040517f08c379a000000000000000000000000000000000000000000000000000000000815260040161052090612863565b60405180910390fd5b8173ffffffffffffffffffffffffffffffffffffffff163373ffffffffffffffffffffffffffffffffffffffff1614610597576040517f08c379a000000000000000000000000000000000000000000000000000000000815260040161058e90612bd3565b60405180910390fd5b6000600360008473ffffffffffffffffffffffffffffffffffffffff1673ffffffffffffffffffffffffffffffffffffffff168152602001908152602001600020905060005b8180549050811015610670578181815481106105fc576105fb612bf3565b5b906000526020600020906007020160060160009054906101000a900460ff1661065d57600182828154811061063457610633612bf3565b5b906000526020600020906007020160060160006101000a81548160ff0219169083151502179055505b808061066890612c51565b9150506105dd565b50505050565b816000808273ffffffffffffffffffffffffffffffffffffffff1673ffffffffffffffffffffffffffffffffffffffff16815260200190815260200160002060040160009054906101000a900460ff16610705576040517f08c379a00000000000000000000000000000000000000000000000000000000081526004016106fc90612863565b60405180910390fd5b8273ffffffffffffffffffffffffffffffffffffffff163373ffffffffffffffffffffffffffffffffffffffff1614610773576040517f08c379a000000000000000000000000000000000000000000000000000000000815260040161076a90612bd3565b60405180910390fd5b600360008473ffffffffffffffffffffffffffffffffffffffff1673ffffffffffffffffffffffffffffffffffffffff1681526020019081526020016000208054905082106107f7576040517f08c379a00000000000000000000000000000000000000000000000000000000081526004016107ee90612ce5565b60405180910390fd5b600360008473ffffffffffffffffffffffffffffffffffffffff1673ffffffffffffffffffffffffffffffffffffffff168152602001908152602001600020828154811061084857610847612bf3565b5b906000526020600020906007020160060160009054906101000a900460ff16156108a7576040517f08c379a000000000000000000000000000000000000000000000000000000000815260040161089e90612d51565b60405180910390fd5b6001600360008573ffffffffffffffffffffffffffffffffffffffff1673ffffffffffffffffffffffffffffffffffffffff16815260200190815260200160002083815481106108fa576108f9612bf3565b5b906000526020600020906007020160060160006101000a81548160ff021916908315150217905550505050565b6002818154811061093757600080fd5b906000526020600020016000915054906101000a900473ffffffffffffffffffffffffffffffffffffffff1681565b606080606080606080866000808273ffffffffffffffffffffffffffffffffffffffff1673ffffffffffffffffffffffffffffffffffffffff16815260200190815260200160002060040160009054906101000a900460ff166109fe576040517f08c379a00000000000000000000000000000000000000000000000000000000081526004016109f590612863565b60405180910390fd5b6000600360008a73ffffffffffffffffffffffffffffffffffffffff1673ffffffffffffffffffffffffffffffffffffffff16815260200190815260200160002090506000818054905090508067ffffffffffffffff811115610a6457610a63611ed7565b5b604051908082528060200260200182016040528015610a9757816020015b6060815260200190600190039081610a825790505b5098508067ffffffffffffffff811115610ab457610ab3611ed7565b5b604051908082528060200260200182016040528015610ae757816020015b6060815260200190600190039081610ad25790505b5097508067ffffffffffffffff811115610b0457610b03611ed7565b5b604051908082528060200260200182016040528015610b3757816020015b6060815260200190600190039081610b225790505b5096508067ffffffffffffffff811115610b5457610b53611ed7565b5b604051908082528060200260200182016040528015610b8757816020015b6060815260200190600190039081610b725790505b5095508067ffffffffffffffff811115610ba457610ba3611ed7565b5b604051908082528060200260200182016040528015610bd25781602001602082028036833780820191505090505b5094508067ffffffffffffffff811115610bef57610bee611ed7565b5b604051908082528060200260200182016040528015610c1d5781602001602082028036833780820191505090505b50935060005b8181101561100557828181548110610c3e57610c3d612bf3565b5b90600052602060002090600702016001018054610c5a906128b2565b80601f0160208091040260200160405190810160405280929190818152602001828054610c86906128b2565b8015610cd35780601f10610ca857610100808354040283529160200191610cd3565b820191906000526020600020905b815481529060010190602001808311610cb657829003601f168201915b50505050508a8281518110610ceb57610cea612bf3565b5b6020026020010181905250828181548110610d0957610d08612bf3565b5b90600052602060002090600702016002018054610d25906128b2565b80601f0160208091040260200160405190810160405280929190818152602001828054610d51906128b2565b8015610d9e5780601f10610d7357610100808354040283529160200191610d9e565b820191906000526020600020905b815481529060010190602001808311610d8157829003601f168201915b5050505050898281518110610db657610db5612bf3565b5b6020026020010181905250828181548110610dd457610dd3612bf3565b5b90600052602060002090600702016003018054610df0906128b2565b80601f0160208091040260200160405190810160405280929190818152602001828054610e1c906128b2565b8015610e695780601f10610e3e57610100808354040283529160200191610e69565b820191906000526020600020905b815481529060010190602001808311610e4c57829003601f168201915b5050505050888281518110610e8157610e80612bf3565b5b6020026020010181905250828181548110610e9f57610e9e612bf3565b5b90600052602060002090600702016004018054610ebb906128b2565b80601f0160208091040260200160405190810160405280929190818152602001828054610ee7906128b2565b8015610f345780601f10610f0957610100808354040283529160200191610f34565b820191906000526020600020905b815481529060010190602001808311610f1757829003601f168201915b5050505050878281518110610f4c57610f4b612bf3565b5b6020026020010181905250828181548110610f6a57610f69612bf3565b5b906000526020600020906007020160050154868281518110610f8f57610f8e612bf3565b5b602002602001018181525050828181548110610fae57610fad612bf3565b5b906000526020600020906007020160060160009054906101000a900460ff16858281518110610fe057610fdf612bf3565b5b6020026020010190151590811515815250508080610ffd90612c51565b915050610c23565b5050505091939550919395565b60006001836040516110249190612dad565b908152602001604051809103902060040160009054906101000a900460ff16611082576040517f08c379a000000000000000000000000000000000000000000000000000000000815260040161107990612863565b60405180910390fd5b816040516020016110939190612dad565b604051602081830303815290604052805190602001206001846040516110b99190612dad565b90815260200160405180910390206002016040516020016110da9190612e47565b6040516020818303038152906040528051906020012014905092915050565b6000816000808273ffffffffffffffffffffffffffffffffffffffff1673ffffffffffffffffffffffffffffffffffffffff16815260200190815260200160002060040160009054906101000a900460ff1661118a576040517f08c379a000000000000000000000000000000000000000000000000000000000815260040161118190612863565b60405180910390fd5b6000600360008573ffffffffffffffffffffffffffffffffffffffff1673ffffffffffffffffffffffffffffffffffffffff16815260200190815260200160002090506000805b8280549050811015611235578281815481106111f0576111ef612bf3565b5b906000526020600020906007020160060160009054906101000a900460ff1661122257818061121e90612c51565b9250505b808061122d90612c51565b9150506111d1565b50809350505050919050565b60006020528060005260406000206000915090508060000160009054906101000a900473ffffffffffffffffffffffffffffffffffffffff169080600101805461128a906128b2565b80601f01602080910402602001604051908101604052809291908181526020018280546112b6906128b2565b80156113035780601f106112d857610100808354040283529160200191611303565b820191906000526020600020905b8154815290600101906020018083116112e657829003601f168201915b505050505090806002018054611318906128b2565b80601f0160208091040260200160405190810160405280929190818152602001828054611344906128b2565b80156113915780601f1061136657610100808354040283529160200191611391565b820191906000526020600020905b81548152906001019060200180831161137457829003601f168201915b5050505050908060030180546113a6906128b2565b80601f01602080910402602001604051908101604052809291908181526020018280546113d2906128b2565b801561141f5780601f106113f45761010080835404028352916020019161141f565b820191906000526020600020905b81548152906001019060200180831161140257829003601f168201915b5050505050908060040160009054906101000a900460ff16905085565b6001818051602081018201805184825260208301602085012081835280955050505050506000915090508060000160009054906101000a900473ffffffffffffffffffffffffffffffffffffffff169080600101805461149b906128b2565b80601f01602080910402602001604051908101604052809291908181526020018280546114c7906128b2565b80156115145780601f106114e957610100808354040283529160200191611514565b820191906000526020600020905b8154815290600101906020018083116114f757829003601f168201915b505050505090806002018054611529906128b2565b80601f0160208091040260200160405190810160405280929190818152602001828054611555906128b2565b80156115a25780601f10611577576101008083540402835291602001916115a2565b820191906000526020600020905b81548152906001019060200180831161158557829003601f168201915b5050505050908060030180546115b7906128b2565b80601f01602080910402602001604051908101604052809291908181526020018280546115e3906128b2565b80156116305780601f1061160557610100808354040283529160200191611630565b820191906000526020600020905b81548152906001019060200180831161161357829003601f168201915b5050505050908060040160009054906101000a900460ff16905085565b600060608060606001856040516116649190612dad565b908152602001604051809103902060040160009054906101000a900460ff166116c2576040517f08c379a00000000000000000000000000000000000000000000000000000000081526004016116b990612863565b60405180910390fd5b60006001866040516116d49190612dad565b90815260200160405180910390206040518060a00160405290816000820160009054906101000a900473ffffffffffffffffffffffffffffffffffffffff1673ffffffffffffffffffffffffffffffffffffffff1673ffffffffffffffffffffffffffffffffffffffff168152602001600182018054611753906128b2565b80601f016020809104026020016040519081016040528092919081815260200182805461177f906128b2565b80156117cc5780601f106117a1576101008083540402835291602001916117cc565b820191906000526020600020905b8154815290600101906020018083116117af57829003601f168201915b505050505081526020016002820180546117e5906128b2565b80601f0160208091040260200160405190810160405280929190818152602001828054611811906128b2565b801561185e5780601f106118335761010080835404028352916020019161185e565b820191906000526020600020905b81548152906001019060200180831161184157829003601f168201915b50505050508152602001600382018054611877906128b2565b80601f01602080910402602001604051908101604052809291908181526020018280546118a3906128b2565b80156118f05780601f106118c5576101008083540402835291602001916118f0565b820191906000526020600020905b8154815290600101906020018083116118d357829003601f168201915b505050505081526020016004820160009054906101000a900460ff161515151581525050905080600001518160200151826040015183606001519450945094509450509193509193565b83836000808373ffffffffffffffffffffffffffffffffffffffff1673ffffffffffffffffffffffffffffffffffffffff16815260200190815260200160002060040160009054906101000a900460ff16156119cb576040517f08c379a00000000000000000000000000000000000000000000000000000000081526004016119c290612ed0565b60405180910390fd5b6001816040516119db9190612dad565b908152602001604051809103902060040160009054906101000a900460ff1615611a3a576040517f08c379a0000000000000000000000000000000000000000000000000000000008152600401611a3190612f3c565b60405180910390fd5b600385511015611a7f576040517f08c379a0000000000000000000000000000000000000000000000000000000008152600401611a7690612fce565b60405180910390fd5b6000845111611ac3576040517f08c379a0000000000000000000000000000000000000000000000000000000008152600401611aba9061303a565b60405180910390fd5b6000835111611b07576040517f08c379a0000000000000000000000000000000000000000000000000000000008152600401611afe906130a6565b60405180910390fd5b600073ffffffffffffffffffffffffffffffffffffffff168673ffffffffffffffffffffffffffffffffffffffff1603611b76576040517f08c379a0000000000000000000000000000000000000000000000000000000008152600401611b6d90613112565b60405180910390fd5b8573ffffffffffffffffffffffffffffffffffffffff163373ffffffffffffffffffffffffffffffffffffffff1614611be4576040517f08c379a0000000000000000000000000000000000000000000000000000000008152600401611bdb906131a4565b60405180910390fd5b60006040518060a001604052808873ffffffffffffffffffffffffffffffffffffffff168152602001878152602001868152602001858152602001600115158152509050806000808973ffffffffffffffffffffffffffffffffffffffff1673ffffffffffffffffffffffffffffffffffffffff16815260200190815260200160002060008201518160000160006101000a81548173ffffffffffffffffffffffffffffffffffffffff021916908373ffffffffffffffffffffffffffffffffffffffff1602179055506020820151816001019081611cc39190612a8f565b506040820151816002019081611cd99190612a8f565b506060820151816003019081611cef9190612a8f565b5060808201518160040160006101000a81548160ff02191690831515021790555090505080600187604051611d249190612dad565b908152602001604051809103902060008201518160000160006101000a81548173ffffffffffffffffffffffffffffffffffffffff021916908373ffffffffffffffffffffffffffffffffffffffff1602179055506020820151816001019081611d8e9190612a8f565b506040820151816002019081611da49190612a8f565b506060820151816003019081611dba9190612a8f565b5060808201518160040160006101000a81548160ff0219169083151502179055509050506002879080600181540180825580915050600190039060005260206000200160009091909190916101000a81548173ffffffffffffffffffffffffffffffffffffffff021916908373ffffffffffffffffffffffffffffffffffffffff16021790555050505050505050565b6000604051905090565b600080fd5b600080fd5b600073ffffffffffffffffffffffffffffffffffffffff82169050919050565b6000611e8982611e5e565b9050919050565b611e9981611e7e565b8114611ea457600080fd5b50565b600081359050611eb681611e90565b92915050565b600080fd5b600080fd5b6000601f19601f8301169050919050565b7f4e487b7100000000000000000000000000000000000000000000000000000000600052604160045260246000fd5b611f0f82611ec6565b810181811067ffffffffffffffff82111715611f2e57611f2d611ed7565b5b80604052505050565b6000611f41611e4a565b9050611f4d8282611f06565b919050565b600067ffffffffffffffff821115611f6d57611f6c611ed7565b5b611f7682611ec6565b9050602081019050919050565b82818337600083830152505050565b6000611fa5611fa084611f52565b611f37565b905082815260208101848484011115611fc157611fc0611ec1565b5b611fcc848285611f83565b509392505050565b600082601f830112611fe957611fe8611ebc565b5b8135611ff9848260208601611f92565b91505092915050565b600080600080600060a0868803121561201e5761201d611e54565b5b600061202c88828901611ea7565b955050602086013567ffffffffffffffff81111561204d5761204c611e59565b5b61205988828901611fd4565b945050604086013567ffffffffffffffff81111561207a57612079611e59565b5b61208688828901611fd4565b935050606086013567ffffffffffffffff8111156120a7576120a6611e59565b5b6120b388828901611fd4565b925050608086013567ffffffffffffffff8111156120d4576120d3611e59565b5b6120e088828901611fd4565b9150509295509295909350565b60006020828403121561210357612102611e54565b5b600061211184828501611ea7565b91505092915050565b6000819050919050565b61212d8161211a565b811461213857600080fd5b50565b60008135905061214a81612124565b92915050565b6000806040838503121561216757612166611e54565b5b600061217585828601611ea7565b92505060206121868582860161213b565b9150509250929050565b6000602082840312156121a6576121a5611e54565b5b60006121b48482850161213b565b91505092915050565b6121c681611e7e565b82525050565b60006020820190506121e160008301846121bd565b92915050565b600081519050919050565b600082825260208201905092915050565b6000819050602082019050919050565b600081519050919050565b600082825260208201905092915050565b60005b8381101561224d578082015181840152602081019050612232565b60008484015250505050565b600061226482612213565b61226e818561221e565b935061227e81856020860161222f565b61228781611ec6565b840191505092915050565b600061229e8383612259565b905092915050565b6000602082019050919050565b60006122be826121e7565b6122c881856121f2565b9350836020820285016122da85612203565b8060005b8581101561231657848403895281516122f78582612292565b9450612302836122a6565b925060208a019950506001810190506122de565b50829750879550505050505092915050565b600081519050919050565b600082825260208201905092915050565b6000819050602082019050919050565b61235d8161211a565b82525050565b600061236f8383612354565b60208301905092915050565b6000602082019050919050565b600061239382612328565b61239d8185612333565b93506123a883612344565b8060005b838110156123d95781516123c08882612363565b97506123cb8361237b565b9250506001810190506123ac565b5085935050505092915050565b600081519050919050565b600082825260208201905092915050565b6000819050602082019050919050565b60008115159050919050565b61242781612412565b82525050565b6000612439838361241e565b60208301905092915050565b6000602082019050919050565b600061245d826123e6565b61246781856123f1565b935061247283612402565b8060005b838110156124a357815161248a888261242d565b975061249583612445565b925050600181019050612476565b5085935050505092915050565b600060c08201905081810360008301526124ca81896122b3565b905081810360208301526124de81886122b3565b905081810360408301526124f281876122b3565b9050818103606083015261250681866122b3565b9050818103608083015261251a8185612388565b905081810360a083015261252e8184612452565b9050979650505050505050565b6000806040838503121561255257612551611e54565b5b600083013567ffffffffffffffff8111156125705761256f611e59565b5b61257c85828601611fd4565b925050602083013567ffffffffffffffff81111561259d5761259c611e59565b5b6125a985828601611fd4565b9150509250929050565b6125bc81612412565b82525050565b60006020820190506125d760008301846125b3565b92915050565b6125e68161211a565b82525050565b600060208201905061260160008301846125dd565b92915050565b600082825260208201905092915050565b600061262382612213565b61262d8185612607565b935061263d81856020860161222f565b61264681611ec6565b840191505092915050565b600060a08201905061266660008301886121bd565b81810360208301526126788187612618565b9050818103604083015261268c8186612618565b905081810360608301526126a08185612618565b90506126af60808301846125b3565b9695505050505050565b6000602082840312156126cf576126ce611e54565b5b600082013567ffffffffffffffff8111156126ed576126ec611e59565b5b6126f984828501611fd4565b91505092915050565b600060808201905061271760008301876121bd565b81810360208301526127298186612618565b9050818103604083015261273d8185612618565b905081810360608301526127518184612618565b905095945050505050565b6000806000806080858703121561277657612775611e54565b5b600061278487828801611ea7565b945050602085013567ffffffffffffffff8111156127a5576127a4611e59565b5b6127b187828801611fd4565b935050604085013567ffffffffffffffff8111156127d2576127d1611e59565b5b6127de87828801611fd4565b925050606085013567ffffffffffffffff8111156127ff576127fe611e59565b5b61280b87828801611fd4565b91505092959194509250565b7f5573657220646f6573206e6f7420657869737400000000000000000000000000600082015250565b600061284d601383612607565b915061285882612817565b602082019050919050565b6000602082019050818103600083015261287c81612840565b9050919050565b7f4e487b7100000000000000000000000000000000000000000000000000000000600052602260045260246000fd5b600060028204905060018216806128ca57607f821691505b6020821081036128dd576128dc612883565b5b50919050565b60008190508160005260206000209050919050565b60006020601f8301049050919050565b600082821b905092915050565b6000600883026129457fffffffffffffffffffffffffffffffffffffffffffffffffffffffffffffffff82612908565b61294f8683612908565b95508019841693508086168417925050509392505050565b6000819050919050565b600061298c6129876129828461211a565b612967565b61211a565b9050919050565b6000819050919050565b6129a683612971565b6129ba6129b282612993565b848454612915565b825550505050565b600090565b6129cf6129c2565b6129da81848461299d565b505050565b5b818110156129fe576129f36000826129c7565b6001810190506129e0565b5050565b601f821115612a4357612a14816128e3565b612a1d846128f8565b81016020851015612a2c578190505b612a40612a38856128f8565b8301826129df565b50505b505050565b600082821c905092915050565b6000612a6660001984600802612a48565b1980831691505092915050565b6000612a7f8383612a55565b9150826002028217905092915050565b612a9882612213565b67ffffffffffffffff811115612ab157612ab0611ed7565b5b612abb82546128b2565b612ac6828285612a02565b600060209050601f831160018114612af95760008415612ae7578287015190505b612af18582612a73565b865550612b59565b601f198416612b07866128e3565b60005b82811015612b2f57848901518255600182019150602085019450602081019050612b0a565b86831015612b4c5784890151612b48601f891682612a55565b8355505b6001600288020188555050505b505050505050565b7f4f6e6c792074686520757365722063616e206d61726b207468656972206e6f7460008201527f696669636174696f6e7320617320726561640000000000000000000000000000602082015250565b6000612bbd603283612607565b9150612bc882612b61565b604082019050919050565b60006020820190508181036000830152612bec81612bb0565b9050919050565b7f4e487b7100000000000000000000000000000000000000000000000000000000600052603260045260246000fd5b7f4e487b7100000000000000000000000000000000000000000000000000000000600052601160045260246000fd5b6000612c5c8261211a565b91507fffffffffffffffffffffffffffffffffffffffffffffffffffffffffffffffff8203612c8e57612c8d612c22565b5b600182019050919050565b7f496e76616c6964206e6f74696669636174696f6e20696e646578000000000000600082015250565b6000612ccf601a83612607565b9150612cda82612c99565b602082019050919050565b60006020820190508181036000830152612cfe81612cc2565b9050919050565b7f4e6f74696669636174696f6e20616c7265616479207265616400000000000000600082015250565b6000612d3b601983612607565b9150612d4682612d05565b602082019050919050565b60006020820190508181036000830152612d6a81612d2e565b9050919050565b600081905092915050565b6000612d8782612213565b612d918185612d71565b9350612da181856020860161222f565b80840191505092915050565b6000612db98284612d7c565b915081905092915050565b60008154612dd1816128b2565b612ddb8186612d71565b94506001821660008114612df65760018114612e0b57612e3e565b60ff1983168652811515820286019350612e3e565b612e14856128e3565b60005b83811015612e3657815481890152600182019150602081019050612e17565b838801955050505b50505092915050565b6000612e538284612dc4565b915081905092915050565b7f57616c6c6574206164647265737320697320616c72656164792072656769737460008201527f6572656400000000000000000000000000000000000000000000000000000000602082015250565b6000612eba602483612607565b9150612ec582612e5e565b604082019050919050565b60006020820190508181036000830152612ee981612ead565b9050919050565b7f557365726e616d6520697320616c72656164792074616b656e00000000000000600082015250565b6000612f26601983612607565b9150612f3182612ef0565b602082019050919050565b60006020820190508181036000830152612f5581612f19565b9050919050565b7f557365726e616d65206d757374206265206174206c656173742033206368617260008201527f616374657273206c6f6e67000000000000000000000000000000000000000000602082015250565b6000612fb8602b83612607565b9150612fc382612f5c565b604082019050919050565b60006020820190508181036000830152612fe781612fab565b9050919050565b7f50617373776f726420686173682063616e6e6f7420626520656d707479000000600082015250565b6000613024601d83612607565b915061302f82612fee565b602082019050919050565b6000602082019050818103600083015261305381613017565b9050919050565b7f456d61696c2063616e6e6f7420626520656d7074790000000000000000000000600082015250565b6000613090601583612607565b915061309b8261305a565b602082019050919050565b600060208201905081810360008301526130bf81613083565b9050919050565b7f496e76616c69642077616c6c6574206164647265737300000000000000000000600082015250565b60006130fc601683612607565b9150613107826130c6565b602082019050919050565b6000602082019050818103600083015261312b816130ef565b9050919050565b7f53656e646572206d75737420626520746865207265676973746572696e67207760008201527f616c6c6574000000000000000000000000000000000000000000000000000000602082015250565b600061318e602583612607565b915061319982613132565b604082019050919050565b600060208201905081810360008301526131bd81613181565b905091905056fea2646970667358221220abef4c66e6ec672cea464972fe966a293d6013cdc17b9769a5e7cc4fa55ec7a764736f6c63430008130033",
  "immutableReferences": {},
  "source": "// SPDX-License-Identifier: MIT\r\npragma solidity >=0.4.22 <0.9.0;\r\n\r\ncontract userManagement {\r\n    struct User {\r\n        address _userAddress;\r\n        string _userName;\r\n        string _userPassword; // Will store hashed password\r\n        string _userEmail;\r\n        bool _exist;\r\n    }\r\n\r\n    struct Notification {\r\n        address _userAddress;\r\n        string _type;\r\n        string _message;\r\n        string _parameter;\r\n        string _value;\r\n        uint256 _timestamp;\r\n        bool _isRead;\r\n    }\r\n\r\n    mapping(address => User) public users;\r\n    mapping(string => User) public usernames;\r\n    address[] public userAddresses;\r\n    \r\n    // Mapping from user address to their notifications\r\n    mapping(address => Notification[]) private userNotifications;\r\n    \r\n    modifier userNotExists(address wallet, string memory username) {\r\n        require(!users[wallet]._exist, \"Wallet address is already registered\");\r\n        require(!usernames[username]._exist, \"Username is already taken\");\r\n        _;\r\n    }\r\n\r\n    modifier userExists(address wallet) {\r\n        require(users[wallet]._exist, \"User does not exist\");\r\n        _;\r\n    }\r\n\r\n    function userSignUp(\r\n        address wallet,\r\n        string memory username,\r\n        string memory hashedPassword,\r\n        string memory email\r\n    ) public userNotExists(wallet, username) {\r\n        require(bytes(username).length >= 3, \"Username must be at least 3 characters long\");\r\n        require(bytes(hashedPassword).length > 0, \"Password hash cannot be empty\");\r\n        require(bytes(email).length > 0, \"Email cannot be empty\");\r\n        require(wallet != address(0), \"Invalid wallet address\");\r\n        require(msg.sender == wallet, \"Sender must be the registering wallet\");\r\n\r\n        User memory newUser = User({\r\n            _userAddress: wallet,\r\n            _userName: username,\r\n            _userPassword: hashedPassword,\r\n            _userEmail: email,\r\n            _exist: true\r\n        });\r\n\r\n        users[wallet] = newUser;\r\n        usernames[username] = newUser;\r\n        userAddresses.push(wallet);\r\n    }\r\n\r\n    function userLogin(string memory username, string memory hashedPassword) public view returns (bool) {\r\n        require(usernames[username]._exist, \"User does not exist\");\r\n        \r\n        // Direct comparison of hashed passwords\r\n        return keccak256(abi.encodePacked(usernames[username]._userPassword)) == \r\n               keccak256(abi.encodePacked(hashedPassword));\r\n    }\r\n\r\n    function viewUserByUsername(string memory username) public view returns (\r\n        address,\r\n        string memory,\r\n        string memory,\r\n        string memory\r\n    ) {\r\n        require(usernames[username]._exist, \"User does not exist\");\r\n        User memory user = usernames[username];\r\n        return (\r\n            user._userAddress,\r\n            user._userName,\r\n            user._userPassword,\r\n            user._userEmail\r\n        );\r\n    }\r\n\r\n    // New notification functions\r\n    function addNotification(\r\n        address userAddress,\r\n        string memory notificationType,\r\n        string memory message,\r\n        string memory parameter,\r\n        string memory value\r\n    ) public userExists(userAddress) {\r\n        Notification memory newNotification = Notification({\r\n            _userAddress: userAddress,\r\n            _type: notificationType,\r\n            _message: message,\r\n            _parameter: parameter,\r\n            _value: value,\r\n            _timestamp: block.timestamp,\r\n            _isRead: false\r\n        });\r\n\r\n        userNotifications[userAddress].push(newNotification);\r\n    }\r\n\r\n    function getUserNotifications(address userAddress) \r\n        public \r\n        view \r\n        userExists(userAddress)\r\n        returns (\r\n            string[] memory types,\r\n            string[] memory messages,\r\n            string[] memory parameters,\r\n            string[] memory values,\r\n            uint256[] memory timestamps,\r\n            bool[] memory isRead\r\n        ) \r\n    {\r\n        Notification[] storage notifications = userNotifications[userAddress];\r\n        uint256 length = notifications.length;\r\n\r\n        types = new string[](length);\r\n        messages = new string[](length);\r\n        parameters = new string[](length);\r\n        values = new string[](length);\r\n        timestamps = new uint256[](length);\r\n        isRead = new bool[](length);\r\n\r\n        for (uint256 i = 0; i < length; i++) {\r\n            types[i] = notifications[i]._type;\r\n            messages[i] = notifications[i]._message;\r\n            parameters[i] = notifications[i]._parameter;\r\n            values[i] = notifications[i]._value;\r\n            timestamps[i] = notifications[i]._timestamp;\r\n            isRead[i] = notifications[i]._isRead;\r\n        }\r\n\r\n        return (types, messages, parameters, values, timestamps, isRead);\r\n    }\r\n\r\n    function getUnreadNotificationCount(address userAddress) \r\n        public \r\n        view \r\n        userExists(userAddress)\r\n        returns (uint256) \r\n    {\r\n        Notification[] storage notifications = userNotifications[userAddress];\r\n        uint256 unreadCount = 0;\r\n        \r\n        for (uint256 i = 0; i < notifications.length; i++) {\r\n            if (!notifications[i]._isRead) {\r\n                unreadCount++;\r\n            }\r\n        }\r\n        \r\n        return unreadCount;\r\n    }\r\n\r\n    function markNotificationAsRead(address userAddress, uint256 notificationIndex) \r\n        public \r\n        userExists(userAddress) \r\n    {\r\n        require(msg.sender == userAddress, \"Only the user can mark their notifications as read\");\r\n        require(notificationIndex < userNotifications[userAddress].length, \"Invalid notification index\");\r\n        require(!userNotifications[userAddress][notificationIndex]._isRead, \"Notification already read\");\r\n\r\n        userNotifications[userAddress][notificationIndex]._isRead = true;\r\n    }\r\n\r\n    function markAllNotificationsAsRead(address userAddress) \r\n        public \r\n        userExists(userAddress) \r\n    {\r\n        require(msg.sender == userAddress, \"Only the user can mark their notifications as read\");\r\n        \r\n        Notification[] storage notifications = userNotifications[userAddress];\r\n        for (uint256 i = 0; i < notifications.length; i++) {\r\n            if (!notifications[i]._isRead) {\r\n                notifications[i]._isRead = true;\r\n            }\r\n        }\r\n    }\r\n}\r\n",
  "sourcePath": "C:\\Users\\HP\\Desktop\\MLEW\\IoT-based-Power-and-Water-Theft-Detection-in-urban-cities-MLEW-Final-Project\\contracts\\userManagement.sol",
  "compiler": {
    "name": "solc",
    "version": "0.8.19+commit.7dd6d404.Emscripten.clang"
  },
  "schemaVersion": "3.4.16",
  "updatedAt": "2025-03-15T11:16:06.234Z",
  "networkType": "ethereum",
  "devdoc": {
    "kind": "dev",
    "methods": {},
    "version": 1
  },
  "userdoc": {
    "kind": "user",
    "methods": {},
    "version": 1
  }
}